:0400000062EF00F0BB
:100008005B82FACF20F0FBCF21F0E9CF22F0EACFD4
:1000180023F0E1CF24F0E2CF25F0D9CF26F0DACFD4
:1000280027F0F3CF28F0F4CF29F0F6CF2AF0F7CF56
:100038002BF0F8CF2CF0F5CF2DF09DB09EA004D07A
:1000480082EC35F0AFEC35F0A0B2A1A203D0B4EC4D
:1000580034F016D09DBA9EAA05D0ACEC35F06EEC03
:1000680033F00ED09DB89EA803D053EC33F008D0DF
:10007800A0BCA1AC03D0BAEC35F002D0A2EC1CF0C5
:100088002DC0F5FF2CC0F8FF2BC0F7FF2AC0F6FFE4
:1000980029C0F4FF28C0F3FF27C0DAFF26C0D9FF24
:1000A80025C0E2FF24C0E1FF23C0EAFF22C0E9FF28
:1000B80021C0FBFF20C0FAFF5B92110016EF2EF063
:1000C8000001B76F000E0001B06F0001AE510001D2
:1000D800D8B486EF09F00001FB51D8B486EF09F0D7
:1000E8000001FC510001F05DD8A0DCD0BFEC28F085
:1000F800000E0001C46F000EC36F000E0001C66F32
:10010800000EC56F00F091EC2CF0000E0001B16FED
:1001180095EC30F06DC071F06EC072F064EC2BF0AD
:1001280071C0C3F072C0C4F06DEC35F060C071F0FE
:1001380061C072F0060E0001736F010E0001746F4A
:100148006FEC2FF0C3C067F0C4C068F0040E000164
:10015800696F24EC19F09BEC31F063C071F064C056
:1001680072F064EC2BF071C0C5F072C0C6F00001EB
:10017800C55179EC21F00001AF6F0001AF510001CA
:10018800C56FC66B090E0001666F0001C551A6EC6C
:1001980024F0000E0001F06FD1EC34F04B0E00019A
:1001A800716F7C0E0001726F000E0001736F000EFC
:1001B8000001746F6FEC2FF0410E0001716F7E0E1D
:1001C8000001726F000E0001736F010E0001746F61
:1001D8006FEC2FF07F0E0001716F7D0E0001726FC2
:1001E800000E0001736F020E0001746F6FEC2FF0A8
:1001F8006DEC35F060C071F061C072F0030E000163
:10020800736F020E0001746F6FEC2FF00B0E00017C
:10021800766F020E0001776F0001C5515CEC26F085
:1002280088EC35F00001EA6F0001EA510001D8A41A
:1002380002D0050E07D0DF0E0001EA6505D00001E7
:10024800EA51CE0F0001EA6F0A0E0001766F010E27
:100258000001776F0001EA511AEC2AF0000E000144
:10026800666F0001EA51A6EC24F0200E0101BF6F71
:1002780000F0470E0001616F7D0E0001626FBC0E39
:100288000001636F010E0001646F0C0E0001656FC1
:1002980083EC25F0070E0001EF6F080E0001EE6FEA
:1002A80086EF09F00001F951D8B40AD00001F02B0B
:1002B8000F0E0001EE6F010E0001AC6F86EF09F022
:1002C800000E0001F06F86EF09F0FFD70001B7516B
:1002D8000001D8A405D00001AC510001D8B4120027
:1002E800D1EC34F0E60E0001716F7A0E0001726FE6
:1002F800000E0001736F000E0001746F6FEC2FF099
:100308004C0E0001716F7B0E0001726F000E000130
:10031800736F010E0001746F6FEC2FF09D0E0001DA
:10032800716F7C0E0001726F000E0001736F030E77
:100338000001746F6FEC2FF0060E0001EE6F1200D3
:100348000001B7510001D8B430D0D1EC34F0D50E4B
:100358000001716F7A0E0001726F000E0001736F59
:10036800000E0001746F6FEC2FF0C40E0001716F66
:100378007A0E0001726F000E0001736F010E00010A
:10038800746F6FEC2FF09D0E0001716F7C0E0001F1
:10039800726F000E0001736F030E0001746F6FEC33
:1003A8002FF00A0E0001EE6F12000001AC5100019F
:1003B800D8B41200000E0001F06FD1EC34F0F60E44
:1003C8000001716F7B0E0001726F000E0001736FE8
:1003D800000E0001746F6FEC2FF05A0E0001716F60
:1003E8007A0E0001726F000E0001736F030E000198
:1003F800746F6FEC2FF0BFEC28F088EC35F000013B
:10040800EA6F0001EA510001D8A402D0050E07D016
:10041800DF0E0001EA6505D00001EA51CE0F0001A8
:10042800EA6F0C0E0001766F010E0001776F000174
:10043800EA511AEC2AF0000E0001666F0001EA5139
:10044800A6EC24F0200E0101BF6F000E0001C46F5E
:10045800000EC36F000E0001C66F000EC56F00F0DE
:1004680091EC2CF0010E0001616FF40E606FFFEC4F
:1004780032F0000E0001B26F95EC30F06DC071F0F3
:100488006EC072F064EC2BF071C0C3F072C0C4F09F
:10049800C3C067F0C4C068F0040E0001696F24ECA3
:1004A80019F000F000F09BEC31F063C071F064C00B
:1004B80072F064EC2BF071C0C5F072C0C6F0000198
:1004C800C55179EC21F00001AF6F0001AF51000177
:1004D800C56FC66B090E0001666F0001C551A6EC19
:1004E80024F000F0070E0001EE6F12000001B75172
:1004F8000001D8B411D0470E0001616F7D0E0001D4
:10050800626FBC0E0001636F010E0001646F0C0E78
:100518000001656F83EC25F00001AC510001D8B4EF
:1005280045D0BFEC28F04AC167F04BC168F0030E14
:100538000001696F24EC19F0000E0001B46F000E81
:10054800B36F0001B4BF08D00001B45128E1050E13
:100558000001B35DD8B023D0090E0001666F000119
:10056800B351A6EC24F0470E0001616F7D0E000127
:10057800626FBC0E0001636F010E0001646F0C0E08
:100588000001656F83EC25F0010E0001B325000121
:10059800B36F000E0001B4210001B46FD2D7010E71
:1005A80001014A27000E4B234C234D230001B7516C
:1005B8000001D8A405D00001AC510001D8B4120044
:1005C800D1EC34F0590E0001716F7E0E0001726F8C
:1005D800000E0001736F000E0001746F6FEC2FF0B6
:1005E8004D0E0001716F7E0E0001726F000E00014A
:1005F800736F010E0001746F6FEC2FF00C0E000189
:10060800766F010E0001776F0001EA511AEC2AF0AB
:100618007F0E0001716F7D0E0001726F000E0001E8
:10062800736F020E0001746F6FEC2FF06DEC35F0F4
:1006380060C071F061C072F0030E0001736F020EAA
:100648000001746F6FEC2FF00B0E0001766F020E35
:100658000001776F0001C5515CEC26F0899C080EFB
:100668000001EE6F12000001AD510001D8B43BD17A
:100678005C0E0001606F010E0001616FF80E000151
:10068800626F7F0E0001636F1CEC31F00001605156
:1006980000016111D8A404D0898C080E0001EE6F06
:1006A8005C0E0001606F010E0001616FAB0E00016E
:1006B800626F7F0E0001636F000E0001656F060E0A
:1006C800646F13EC2BF00001605100016111D8A494
:1006D80089D0070E0001B66F0001B651010D5C0EFE
:1006E800F324D96E010EF420DA6EDF500101EF6FAA
:1006F8000001B62B0001B651010D5C0EF324D96E32
:10070800010EF420DA6EDF500101F06F0001B62B04
:10071800200E0101F019D8B415D00001B651010D11
:100728005C0EF324D96E010EF420DA6EDF5001015D
:10073800F16F0001B62B200E0101F119D8B402D0D7
:100748000001B62B000E0001B56F3F0E0001B56524
:1007580001D029D00001B651010D5C0EF324D96EE9
:10076800010EF420DA6E0001B551010D9C0EF32440
:10077800E16E010EF420E26EDFCFE7FF0001B55114
:10078800010D9C0EF324D96E010EF420DA6EDF50B1
:10079800D8B403D00001B62B03D0400E0001B56FCA
:1007A8000001B52BD2D7898E899C190E0001716F73
:1007B8007B0E0001726F000E0001736F020E0001C4
:1007C800746F6FEC2FF0910E0001716F7A0E0001BB
:1007D800726F000E0001736F030E0001746F6FECEF
:1007E8002FF078D05C0E0001606F010E0001616F80
:1007F800B20E0001626F7F0E0001636F000E0001F0
:10080800656F060E646F13EC2BF000016051000158
:100818006111D8A410D0899CD40E0001716F7B0E91
:100828000001726F000E0001736F030E0001746FF8
:100838006FEC2FF04FD05C0E0001606F010E0001CD
:10084800616FA40E0001626F7F0E0001636F000EDE
:100858000001656F060E646F13EC2BF00001605108
:1008680000016111D8A40FD06D0E0001716F7A0ECE
:100878000001726F000E0001736F030E0001746FA8
:100888006FEC2FF027D05C0E0001606F010E0001A5
:10089800616F9D0E0001626F7F0E0001636F000E95
:1008A8000001656F060E646F13EC2BF000016051B8
:1008B80000016111D8A40ED0CD0E0001716F7C0E1D
:1008C8000001726F000E0001736F030E0001746F58
:1008D8006FEC2FF0FA0E0001AF6F580EE82EFED71E
:1008E800AF2FFCD700D00001B7510001D8A405D024
:1008F8000001AC510001D8B41200D1EC34F0E60E7E
:100908000001716F7A0E0001726F000E0001736FA3
:10091800000E0001746F6FEC2FF04C0E0001716F28
:100928007B0E0001726F000E0001736F010E000153
:10093800746F6FEC2FF09D0E0001716F7C0E00013B
:10094800726F000E0001736F030E0001746F6FEC7D
:100958002FF0060E0001EE6F12000001B7510001E2
:10096800D8B430D0D1EC34F07D0E0001716F7C0E1C
:100978000001726F000E0001736F000E0001746FAA
:100988006FEC2FF06D0E0001716F7C0E0001726F1D
:10099800000E0001736F010E0001746F6FEC2FF0F1
:1009A8009D0E0001716F7C0E0001726F000E000138
:1009B800736F030E0001746F6FEC2FF0010E0001CE
:1009C800EE6F12000001AC510001D8B41200D1EC56
:1009D80034F0899E5C0E0001716F7C0E0001726F0D
:1009E800000E0001736F000E0001746F6FEC2FF0A2
:1009F800CB0E0001716F7E0E0001726F000E0001B8
:100A0800736F010E0001746F6FEC2FF0EF0E000191
:100A1800716F010E0001726F090E0001736F010EF4
:100A28000001746F6FEC2FF05E0E0001716F7E0E87
:100A38000001726F000E0001736F020E0001746FE7
:100A48006FEC2FF09C0E0001716F010E0001726FA8
:100A5800060E0001736F020E0001746F6FEC2FF029
:100A6800A60E0001716F010E0001726F000E0001E9
:100A7800736F030E0001746F6FEC2FF00B0E000103
:100A8800EE6F12000001B7510001D8A405D0000193
:100A9800AC510001D8B41200D1EC34F0D50E0001ED
:100AA800716F7A0E0001726F000E0001736F000EF5
:100AB8000001746F6FEC2FF0C40E0001716F7A0E95
:100AC8000001726F000E0001736F010E0001746F58
:100AD8006FEC2FF09D0E0001716F7C0E0001726F9C
:100AE800000E0001736F030E0001746F6FEC2FF09E
:100AF8000A0E0001EE6F12000001B7510001D8B4D0
:100B080043D0D1EC34F03A0E0001716F7C0E000135
:100B1800726F000E0001736F000E0001746F6FECAE
:100B28002FF00001F951D8B40FD0ED0E0001716F0C
:100B38007C0E0001726F000E0001736F020E00013F
:100B4800746F6FEC2FF00ED0FC0E0001716F7C0EED
:100B58000001726F000E0001736F020E0001746FC6
:100B68006FEC2FF08D0E0001716F7C0E0001726F1B
:100B7800000E0001736F030E0001746F6FEC2FF00D
:100B88000C0E0001EE6F12000001AC510001D8B448
:100B98001200D1EC34F07D0E0001716F7C0E000163
:100BA800726F000E0001736F000E0001746F6FEC1E
:100BB8002FF0810E0001716F7F0E0001726F000E21
:100BC8000001736F010E0001746F6FEC2FF07A0E45
:100BD8000001716F7F0E0001726F000E0001736FCC
:100BE800020E0001746F6FEC2FF0FB0E0001716FA5
:100BF8007F0E0001726F0A0E0001736F020E000172
:100C0800746F6FEC2FF091EC2CF0020E0001EE6F78
:100C180012000001B7510001D8B4BCD0D1EC34F0B7
:100C28003B0E0001716F7B0E0001726F000E000118
:100C3800736F000E0001746F6FEC2FF02A0E000125
:100C4800716F7B0E0001726F000E0001736F010E51
:100C58000001746F6FEC2FF0880E0001716F7F0E2A
:100C68000001726F000E0001736F020E0001746FB5
:100C78006FEC2FF0C30E0001716F7F0E0001726FD1
:100C88000C0E0001736F020E0001746F6FEC2FF0F1
:100C98005AD0D80E0001716F7D0E0001726F070ED9
:100CA8000001736F020E0001746F6FEC2FF060D0BB
:100CB800E10E0001716F7F0E0001726F070E0001D7
:100CC800736F020E0001746F6FEC2FF051D0ED0EB0
:100CD8000001716F7F0E0001726F070E0001736FC4
:100CE800020E0001746F6FEC2FF042D0E50E000188
:100CF800716F7F0E0001726F070E0001736F020E95
:100D08000001746F6FEC2FF033D0E90E0001716FA2
:100D18007F0E0001726F070E0001736F020E000153
:100D2800746F6FEC2FF024D0F00E0001716F7F0EFE
:100D38000001726F070E0001736F020E0001746FDD
:100D48006FEC2FF015D00001FD51000AD8B4A1D7DF
:100D5800010AD8B4ADD7030AD8B4B9D7010AD8B4B0
:100D6800C5D7070AD8B4D1D7010AD8B4DDD791D7E7
:100D78008D0E0001716F7C0E0001726F000E000174
:100D8800736F030E0001746F6FEC2FF00D0E0001EE
:100D9800EE6F12000001AC510001D8B4120000013E
:100DA800F951D8B412D0000E0001F96FFC0E000101
:100DB800716F7C0E0001726F000E0001736F020EDE
:100DC8000001746F6FEC2FF01200010E0001F96F33
:100DD800ED0E0001716F7C0E0001726F000E0001B4
:100DE800736F020E0001746F6FEC2FF01200000198
:100DF800B7510001D8A405D00001AC510001D8B406
:100E08001200D1EC34F07D0E0001716F7C0E0001F0
:100E1800726F000E0001736F000E0001746F6FECAB
:100E28002FF06D0E0001716F7C0E0001726F000EC5
:100E38000001736F010E0001746F6FEC2FF09D0EAF
:100E48000001716F7C0E0001726F000E0001736F5C
:100E5800030E0001746F6FEC2FF0010E0001EE6FAE
:100E680012000001B7510001D8B4B1D0D1EC34F070
:100E7800070E0001716F7C0E0001726F000E0001F9
:100E8800736F000E0001746F6FEC2FF0650E000198
:100E9800716F7E0E0001726F000E0001736F020EFB
:100EA8000001746F6FEC2FF08D0E0001716F7C0ED6
:100EB8000001726F000E0001736F030E0001746F62
:100EC8006FEC2FF0030E0001EE6F69D0C80E000121
:100ED800716F7F0E0001726F0A0E0001736F020EB0
:100EE8000001746F6FEC2FF072D0CC0E0001716F9F
:100EF8007F0E0001726F0A0E0001736F020E00016F
:100F0800746F6FEC2FF063D0D00E0001716F7F0EFD
:100F18000001726F0A0E0001736F020E0001746FF8
:100F28006FEC2FF054D0D40E0001716F7F0E0001CA
:100F3800726F0A0E0001736F020E0001746F6FEC7E
:100F48002FF045D0D80E0001716F7F0E0001726F2F
:100F58000A0E0001736F020E0001746F6FEC2FF020
:100F680036D0DC0E0001716F7F0E0001726F0A0E21
:100F78000001736F020E0001746F6FEC2FF027D021
:100F8800F40E0001716F7F0E0001726F0A0E0001EE
:100F9800736F020E0001746F6FEC2FF018D0000110
:100FA800F751000AD8B492D7010AD8B49ED7030AD9
:100FB800D8B4AAD7010AD8B4B6D7070AD8B4C2D7C2
:100FC800010AD8B4CED7030AD8B4DAD77FD700013C
:100FD800AC510001D8B41200050E0001FD6103D028
:100FE8000001FD2B6FD0000E0001FD6F6BD0090EC4
:100FF8000001FC6FDC0E0001716F7F0E0001726F43
:10100800070E0001736F020E0001746F6FEC2FF072
:101018001200120E0001FC6FE00E0001716F7F0ECE
:101028000001726F070E0001736F020E0001746FEA
:101038006FEC2FF012001B0E0001FC6FEC0E00018C
:10104800716F7F0E0001726F070E0001736F020E41
:101058000001746F6FEC2FF01200360E0001FC6F68
:10106800E40E0001716F7F0E0001726F070E000120
:10107800736F020E0001746F6FEC2FF012006C0E8C
:101088000001FC6FE80E0001716F7F0E0001726FA6
:10109800070E0001736F020E0001746F6FEC2FF0E2
:1010A80012000001FC69F00E0001716F7F0E000153
:1010B800726F070E0001736F020E0001746F6FEC00
:1010C8002FF012000001FD51000AD8B490D7010A90
:1010D800D8B49FD7030AD8B4AED7010AD8B4BDD7BD
:1010E800070AD8B4CCD7010AD8B4DBD780D7000117
:1010F800B7510001D8B425D00001F75191EC11F097
:10110800D1EC34F0E50E0001716F7B0E0001726FB7
:10111800000E0001736F000E0001746F6FEC2FF06A
:10112800AD0E0001716F7C0E0001726F000E0001A0
:10113800736F030E0001746F6FEC2FF00F0E000138
:10114800EE6F0001AC510001D8B41200060E000188
:10115800F7610DD00001ED05D8A406D0030E0001FB
:10116800F76502D0060E04D00001F72B6DD0000EF3
:101178000001F76F69D0C80E0001716F7F0E000182
:10118800726F0A0E0001736F020E0001746F6FEC2C
:101198002FF01200CC0E0001716F7F0E0001726FEC
:1011A8000A0E0001736F020E0001746F6FEC2FF0CE
:1011B8001200D00E0001716F7F0E0001726F0A0ECF
:1011C8000001736F020E0001746F6FEC2FF01200B4
:1011D800D40E0001716F7F0E0001726F0A0E0001BC
:1011E800736F020E0001746F6FEC2FF01200D80EAF
:1011F8000001716F7F0E0001726F0A0E0001736F9C
:10120800020E0001746F6FEC2FF01200DC0E00016B
:10121800716F7F0E0001726F0A0E0001736F020E6C
:101228000001746F6FEC2FF01200F40E0001716F63
:101238007F0E0001726F0A0E0001736F020E00012B
:10124800746F6FEC2FF012000001F751000AD8B448
:1012580092D7010AD8B49ED7030AD8B4AAD7010AEC
:10126800D8B4B6D7070AD8B4C2D7010AD8B4CED7EB
:10127800030AD8B4DAD77FD70001AC510001D8B43B
:101288000CD080EC1FF00009D8B404D0010E000186
:10129800B76F03D0090E0001EF6F0001B7510001CD
:1012A800D8B41200D1EC34F0E60E0001716F7A0E5A
:1012B8000001726F000E0001736F000E0001746F61
:1012C8006FEC2FF04C0E0001716F7B0E0001726FF6
:1012D800000E0001736F010E0001746F6FEC2FF0A8
:1012E8009D0E0001716F7C0E0001726F000E0001EF
:1012F800736F030E0001746F6FEC2FF0060E000180
:10130800EE6F12000001EE51000AD8B46AEF01F046
:10131800010AD8B480EF05F0030AD8B468D5010AE9
:10132800D8B4E5D6050AD8B4A4EF01F0010AD8B4B8
:101338007AEF02F00F0AD8B437EF03F0020AD8B4F4
:10134800B1EF04F0010AD8B446EF05F0070AD8B4A3
:1013580060D4010AD8B485D5020AD8B48DD769EF0C
:1013680001F000017B6F000E00017A6F08D3FFD7F0
:10137800FD0E0001616F7E0E0001626FD6EC33F046
:1013880091D1000177510001D8B403D00A0E0001B1
:10139800D56F00017B510001D8B415D35C0E000154
:1013A800606F010E0001616FB90E0001626F7F0E60
:1013B8000001636F000E0001656F040E646F13EC8B
:1013C8002BF00001605100016111D8A433D0000E48
:1013D8000001ED6FD1EC34F0080E0001716F7B0E47
:1013E8000001726F000E0001736F000E0001746F30
:1013F8006FEC2FF0B20E0001716F7B0E0001726F5F
:10140800000E0001736F020E0001746F6FEC2FF075
:10141800B30E0001716F7A0E0001726F000E0001A9
:10142800736F030E0001746F6FEC2FF04BD0000147
:10143800D56FC9D25C0E0001606F010E0001616FAB
:10144800BE0E0001626F7F0E0001636F000E000187
:10145800656F040E646F13EC2BF0000160510001FE
:101468006111D8A431D0010E0001ED6FD1EC34F038
:10147800080E0001716F7B0E0001726F000E0001F3
:10148800736F000E0001746F6FEC2FF0B20E000145
:10149800716F7B0E0001726F000E0001736F020EF8
:1014A8000001746F6FEC2FF0B30E0001716F7A0EAC
:1014B8000001726F000E0001736F030E0001746F5C
:1014C8006FEC2FF0020EB3D7FD0E0001616F7E0E98
:1014D8000001626FD6EC33F0000E0001616F190E47
:1014E800606FFFEC32F0E4D1000176510001D8B40E
:1014F8001ED0800E0001716F7A0E0001726F000E0F
:101508000001736F030E0001746F6FEC2FF0010E72
:101518000001616FF40E606FFFEC32F0F40E000111
:10152800616F7D0E0001626FD6EC33F079D0000157
:1015380077510001D8B447D2A20E0001716F7A0E1C
:101548000001726F000E0001736F030E0001746FCB
:101558006FEC2FF0010E0001616FF40E606FFFEC6D
:1015680032F0550E0001616F7D0E0001626FD6ECFE
:1015780033F088D100017B510001D8B424D25C0E2D
:101588000001606F010E0001616FF80E0001626FCB
:101598007F0E0001636F1CEC31F000016051000107
:1015A8006111D8A402D0040E42D75C0E0001606F0E
:1015B800010E0001616F710E0001626F7D0E000166
:1015C800636F1CEC31F00001605100016111D8A477
:1015D8001FD0D1EC34F0B50E0001716F7E0E000102
:1015E800726F000E0001736F000E0001746F6FECD4
:1015F8002FF01A0E0001716F7F0E0001726F000E3E
:101608000001736F010E0001746F6FEC2FF099D019
:10161800F40E0001616F7D0E0001626FD6EC33F0AD
:10162800030E05D700017B510001D8B4CCD15C0E64
:101638000001606F010E0001616F230E0001626FEF
:101648007F0E0001636F1CEC31F000016051000156
:101658006111D8A41FD0D1EC34F0D50E0001716F00
:101668007E0E0001726F000E0001736F000E000104
:10167800746F6FEC2FF09F0E0001716F7E0E0001EA
:10168800726F000E0001736F010E0001746F6FEC32
:101698002FF0BCD0F30E0001616F7E0E0001626F67
:1016A800D6EC33F0010EC3D600017B510001D8B44B
:1016B8008AD15C0E0001606F010E0001616FF80EA7
:1016C8000001626F7F0E0001636F1CEC31F00001B6
:1016D800605100016111D8A402D0060EA8D65C0E94
:1016E8000001606F010E0001616F710E0001626FF1
:1016F8007D0E0001636F1CEC31F0000160510001A8
:101708006111D8A420D0D1EC34F0B50E0001716F6E
:101718007E0E0001726F000E0001736F000E000153
:10172800746F6FEC2FF01A0E0001716F7F0E0001BD
:10173800726F000E0001736F010E0001746F6FEC81
:101748002FF0090E74D65C0E0001606F010E0001C7
:10175800616F630E0001626F7D0E0001636F1CEC08
:1017680031F00001605100016111D8A409D0550E73
:101778000001616F7D0E0001626FD6EC33F082D0FC
:101788005C0E0001606F010E0001616F940E000194
:10179800626F7E0E0001636F1CEC31F083D0000194
:1017A8007B510001D8B40FD15C0E0001606F010EAF
:1017B8000001616F230E0001626F7F0E0001636FED
:1017C8001CEC31F00001605100016111D8A420D057
:1017D800D1EC34F0890E0001716F7E0E0001726F3A
:1017E800000E0001736F000E0001746F6FEC2FF094
:1017F8009F0E0001716F7E0E0001726F000E0001D6
:10180800736F010E0001746F6FEC2FF0070E0FD687
:101818005C0E0001606F010E0001616F960E000101
:10182800626F7F0E0001636F1CEC31F000016051A4
:1018380000016111D8A428D0D1EC34F0E90E0001E0
:10184800716F7E0E0001726F010E0001736F000E42
:101858000001746F6FEC2FF08F0E0001716F7F0E17
:101868000001726F020E0001736F010E0001746FA8
:101878006FEC2FF0550E0001616F7D0E0001626F55
:10188800D6EC33F0050ED3D55C0E0001606F010E67
:101898000001616F940E0001626F7E0E0001636F9C
:1018A8001CEC31F00001605100016111D8A48BD00B
:1018B800000EBDD5AA0E0001616F7E0E0001626F99
:1018C800D6EC33F021D000017B510001D8B47BD095
:1018D8005C0E0001606F010E0001616F630E000174
:1018E800626F7D0E0001636F1CEC31F000016051E6
:1018F80000016111D8A40AD0AA0E0001616F7E0E02
:101908000001626FD6EC33F0080E91D501015C51ED
:10191800D00F0001796F79C0F7F0010E00017A6FDE
:1019280052D0000177510001D8B44DD00A0E7FD5AE
:10193800000E0001606F000E89EC32F081A281B0C8
:1019480001D0FCD7FA0E0001786F580EE82EFED7AA
:10195800782FFCD700D0FA0E0001786F580EE82EC9
:10196800FED7782FFCD700D0FA0E0001786F580EFA
:10197800E82EFED7782FFCD700D0FF0024D0000136
:10198800D551000AD8B4F4D4010AD8B4FAD4030A59
:10199800D8B4AAD5010AD8B4EDD5070AD8B442D626
:1019A800010AD8B481D6030AD8B4F9D6010AD8B442
:1019B80081D70F0AD8B487D7010AD8B4B2D7030A97
:1019C800D8B4B6D7D4D400017A51120000016351BB
:1019D800800B0001706F0001635163250001726F75
:1019E800000162AF02D00001728100017251000152
:1019F800D8B412D000017229D8A409D0000E000171
:101A0800606F000E616F000E626F000E636F000161
:101A1800628F000E000108D0000E0001606F000EFA
:101A2800616F000E626F000E636F00016751800BDB
:101A38000001716F0001705100017119D8B402D012
:101A48000001708D0001675167250001716F000169
:101A580066AF02D000017181000171510001D8B454
:101A680012D000017129D8A409D0000E0001646FBA
:101A7800000E656F000E666F000E676F0001668FBF
:101A8800000E000108D0000E0001646F000E656FA3
:101A9800000E666F000E676F000172510001715DE4
:101AA800D8B024D0000170AD03D0800E0001701BA7
:101AB80072C073F071C072F073C071F060C073F0DF
:101AC80064C060F073C064F061C073F065C061F019
:101AD80073C065F062C073F066C062F073C066F0F0
:101AE80063C073F067C063F073C067F0000E000155
:101AF800736F000172510001686F696B0001681F04
:101B0800691F684B692B0001715100016A6F6B6B8B
:101B18000001685100016A270001695100016B2327
:101B280000016BBF3DD000016B5105E11A0E0001A9
:101B38006A5DD8A035D00001605100016111000133
:101B4800621100016311D8B402D0010E01D0000E59
:101B58000001736F000E0001606F000E616F000ED0
:101B6800626F000E636F71C072F020D0000173A124
:101B780007D00001D890733101090001736F03D0B9
:101B88000001D8907333000160A102D00001738F67
:101B98000001633563336233613360330001722BB4
:101BA800000171510001725DD8A0E0D7000170BD3D
:101BB8003FD0000172510001D8A40AD0000E0001E4
:101BC800606F000E616F000E626F000E636F12008F
:101BD8000001645100016027000165510001612383
:101BE800000166510001622300016751000163236F
:101BF800000163A1CCD0000173A109D00001D890E5
:101C080073330001735101090001736F03D00001A0
:101C1800D8907333000160A102D00001738F0001D6
:101C2800633563336233613360330001722BAFD0A5
:101C3800000164510001605D0001655100016159B6
:101C4800000166510001625900016351800A0001D8
:101C5800686F00016751800A00016859D8B050D0F8
:101C680060C068F061C069F062C06AF063C06BF080
:101C78000001681F691F6A1F6B1F682B000E69230C
:101C88006A236B23000164510001682500016C6F11
:101C9800000165510001692100016D6F0001665165
:101CA80000016A2100016E6F0001675100016B217C
:101CB80000016F6FFF0E00016C250001606FFF0EC1
:101CC80000016D210001616FFF0E00016E2100010E
:101CD800626FFF0E00016F210001636F800E00012B
:101CE800701B0001736D000173510001D8A418D056
:101CF800010E00016027000E61236223632310D0C8
:101D0800000164510001605F000165510001615BE1
:101D1800000166510001625B000167510001635BCD
:101D2800000160510001611100016211000163119D
:101D3800D8A42AD0000173510001D8A425D0000EE0
:101D48000001606F000E616F000E626F000E636F1E
:101D580012000001D890603761376237633700019D
:101D680073AF02D000016081000173A103D0D88055
:101D7800000102D00001D8907337000172510001B0
:101D8800D8B402D000017207000162AFE2D7000E9A
:101D98000001716F000173AF0DD073C068F07F0E42
:101DA80000016817D8A403D0000160A103D0010E78
:101DB8000001716F000171510001D8B426D0010EE5
:101DC80000016027000E612362236323000163A1E1
:101DD8001CD060C068F061C069F062C06AF063C07E
:101DE8006BF000016B356B336A336933683368C055
:101DF80060F069C061F06AC062F06BC063F0000116
:101E08007229D8B402D00001722B00017229D8B40B
:101E180005D0000172510001D8A411D0000E0001B4
:101E2800606F000E616F000E626F000E636F00013D
:101E380072510001D8A403D0000E0001706F000198
:101E480072A103D00001628F02D00001629F0001DD
:101E5800D89072310001636F000170AF02D00001A9
:101E6800638F60C060F061C061F062C062F063C0FF
:101E780063F0120000017751800B0001806F0001B0
:101E8800775177250001866F000176AF02D00001F7
:101E98008681000186510001D8B410D0000186293E
:101EA800D8A409D0000E0001746F000E756F000EE3
:101EB800766F000E776F0001768F09D0000E000153
:101EC800746F000E756F000E766F000E776F00014D
:101ED8007B51800B0001801B00017B517B25000199
:101EE800816F00017AAF02D0000181810001815128
:101EF8000001D8B410D000018129D8A409D0000E5F
:101F08000001786F000E796F000E7A6F000E7B6FFC
:101F180000017A8F09D0000E0001786F000E796FEA
:101F2800000E7A6F000E7B6F000181510001D8B45A
:101F380005D0000186510001D8A40AD0000E000186
:101F4800746F000E756F000E766F000E776F1200BB
:101F580000017A5100017403F3CF8BF0F4CF8CF0B9
:101F680000018B510001826F836B846B856B0001CC
:101F78008C510001876F886B896B8A6B00017951DE
:101F880000017503F3CF8BF0F4CF8CF000018B5177
:101F980000018227000E83238423852300018C51AE
:101FA80000018727000E882389238A23000178519E
:101FB80000017603F3CF8BF0F4CF8CF000018B5146
:101FC80000018227000E83238423852300018C517E
:101FD80000018727000E882389238A2384C085F07F
:101FE80083C084F082C083F00001826B00017851C5
:101FF80000017503F3CF8BF0F4CF8CF000018B5107
:102008000001822700018C5100018323000E00018A
:102018008423000E00018523000179510001740317
:10202800F3CF8BF0F4CF8CF000018B5100018227A5
:1020380000018C5100018323000E00018423000E4F
:102048000001852384C085F083C084F082C083F0BA
:102058000001826B0001785100017403F3CF8BF00B
:10206800F4CF8CF000018B510001822700018C51C4
:1020780000018323000E00018423000E0001852344
:1020880000017A5100017503F3CF8BF0F4CF8CF087
:1020980000018B510001872700018C510001882322
:1020A800000E00018923000E00018A2300017951E6
:1020B80000017603F3CF8BF0F4CF8CF000018B5145
:1020C8000001872700018C5100018823000E0001C0
:1020D8008923000E00018A2300017A51000176034A
:1020E800F3CF8BF0F4CF8CF000018B5100017C6FA3
:1020F80000018C5100017D6F00017E6B00017F6B38
:102108007EC07FF07DC07EF07CC07DF000017C6BDE
:1021180000017C510001872700017D5100018823BF
:1021280000017E510001892300017F5100018A23AB
:1021380082C07CF083C07DF084C07EF085C07FF0D3
:10214800190E06D00001D8907F337E337D337C335F
:10215800E82EF8D700017C510001872700017D5146
:102168000001882300017E510001892300017F516D
:1021780000018A2384C085F083C084F082C083F084
:102188000001826B0001815186C07CF000017D6BEB
:1021980000017C27000E7D23820E00017C250001B2
:1021A8008B6FFF0E00017D2100018C6F15D000019F
:1021B800D8908737883789378A37000185AF02D0AA
:1021C800000187810001D8908237833784378537AB
:1021D80000018B07D8A08C07000189AFE8D7000E53
:1021E8000001816F000185AF24D0FF0E0001821528
:1021F80000017C6FFF0E0001831500017D6FFF0E4B
:102208000001841500017E6F7F0E00018515000115
:102218007F6F00017C5100017D1100017E110001DA
:102228007F11D8A403D0000187A103D0010E0001BB
:10223800816F000181510001D8B423D0010E000143
:102248008727000E882389238A2300018AA119D0B1
:1022580087C07CF088C07DF089C07EF08AC07FF09E
:1022680000017F357F337E337D337C337CC087F03C
:102278007DC088F07EC089F07FC08AF000018B4B5A
:102288008C2B00018CBF10D000018C5104E100019F
:102298008B29D8A009D0000E0001876F000E886F27
:1022A800800E896F7F0E2BD000018CBF07D00001F4
:1022B8008C5111E100018B05D8B00DD0000E000142
:1022C800876F000E886F000E896F000E8A6F000EF0
:1022D8000001806F15D08BC086F0FF0E00018717B4
:1022E800FF0E88177F0E8917000E8A17000186A136
:1022F80002D00001898F0001D890863100018A6FD1
:102308000001805100018A1387C074F088C075F0FD
:1023180089C076F08AC077F012000001646F080E59
:1023280000016419D8B407D2BD0E0001616F7C0E9C
:102338000001626FD6EC33F0FA0E0001636F580E9D
:10234800E82EFED7632FFCD700D0FA0E0001636F8A
:10235800580EE82EFED7632FFCD700D0FA0E0001E6
:10236800636F580EE82EFED7632FFCD700D0A10E5E
:102378000001616F7B0E0001626FD6EC33F0FA0E3C
:102388000001636F580EE82EFED7632FFCD700D0EC
:10239800FA0E0001636F580EE82EFED7632FFCD7A4
:1023A80000D0FA0E0001636F580EE82EFED7632F97
:1023B800FCD700D0C0D18C0E0001616F7D0E0001EA
:1023C800626FD6EC33F0FA0E0001636F580EE82EF8
:1023D800FED7632FFCD700D0FA0E0001636F580EAA
:1023E800E82EFED7632FFCD700D0FA0E0001636FEA
:1023F800580EE82EFED7632FFCD700D05D0E0001E3
:10240800616F7B0E0001626FD6EC33F0FA0E0001AB
:10241800636F580EE82EFED7632FFCD700D0FA0E54
:102428000001636F580EE82EFED7632FFCD700D04B
:10243800FA0E0001636F580EE82EFED7632FFCD703
:102448005DD1990E0001616F7D0E0001626FD6ECBF
:1024580033F0FA0E0001636F580EE82EFED7632F93
:10246800FCD700D0FA0E0001636F580EE82EFED795
:10247800632FFCD700D0FA0E0001636F580EE82EC8
:10248800FED7632FFCD700D05D0E0001616F7B0E75
:102498000001626FD6EC33F0FA0E0001636F580E3C
:1024A800E82EFED7632FFCD700D0FA0E0001636F29
:1024B800580EE82EFED7632FFCD700D0FA0E000185
:1024C800636F580EE82EFED7632FFCD717D1A60EE0
:1024D8000001616F7D0E0001626FD6EC33F0FA0ED9
:1024E8000001636F580EE82EFED7632FFCD700D08B
:1024F800FA0E0001636F580EE82EFED7632FFCD743
:1025080000D0FA0E0001636F580EE82EFED7632F35
:10251800FCD700D06E0E0001616F7B0E0001626F68
:10252800D6EC33F0FA0E0001636F580EE82EFED792
:10253800632FFCD700D0FA0E0001636F580EE82E07
:10254800FED7632FFCD700D0FA0E0001636F580E38
:10255800E82EFED7632FFCD7D1D0B30E0001616FF0
:102568007D0E0001626FD6EC33F0FA0E0001636F46
:10257800580EE82EFED7632FFCD700D0FA0E0001C4
:10258800636F580EE82EFED7632FFCD700D0FA0EE3
:102598000001636F580EE82EFED7632FFCD700D0DA
:1025A8007F0E0001616F7B0E0001626FD6EC33F085
:1025B800FA0E0001636F580EE82EFED7632FFCD782
:1025C80000D0FA0E0001636F580EE82EFED7632F75
:1025D800FCD700D0FA0E0001636F580EE82EFED724
:1025E800632FFCD78BD0C00E0001616F7D0E0001F8
:1025F800626FD6EC33F0FA0E0001636F580EE82EC6
:10260800FED7632FFCD700D0FA0E0001636F580E77
:10261800E82EFED7632FFCD700D0FA0E0001636FB7
:10262800580EE82EFED7632FFCD700D0900E00017D
:10263800616F7B0E0001626FD6EC33F0FA0E000179
:10264800636F580EE82EFED7632FFCD700D0FA0E22
:102658000001636F580EE82EFED7632FFCD700D019
:10266800FA0E0001636F580EE82EFED7632FFCD7D1
:1026780045D0CD0E0001616F7D0E0001626FD6EC72
:1026880033F0FA0E0001636F580EE82EFED7632F61
:10269800FCD700D0FA0E0001636F580EE82EFED763
:1026A800632FFCD700D0FA0E0001636F580EE82E96
:1026B800FED7632FFCD700D0A10E0001616F7B0EFF
:1026C8000001626FD6EC33F0FA0E0001636F580E0A
:1026D800E82EFED7632FFCD700D0FA0E0001636FF7
:1026E800580EE82EFED7632FFCD700D0FA0E000153
:1026F800636F580EE82EFED7632FFCD700D038D072
:10270800DA0E0001616F7D0E0001626FD6EC33F0C6
:102718002FD0E70E0001616F7D0E0001626FD6ECCD
:1027280033F026D00B0E0001616F7D0E0001626F41
:10273800D6EC33F01DD000016451000AD8B43BD662
:10274800010AD8B47ED6030AD8B4C1D6010AD8B4CF
:1027580004D7070AD8B447D7010AD8B48AD7030AD6
:10276800D8B4CED7010AD8B4D4D70F0AD8B4DAD798
:10277800FA0E0001636F580EE82EFED7632FFCD7C0
:1027880000D0FA0E0001636F580EE82EFED7632FB3
:10279800FCD700D0FA0E0001636F580EE82EFED762
:1027A800632FFCD700D02C0E0001616F7F0E000153
:1027B800626FD6EC33F0120000019051800B0001DB
:1027C800996F0001905190250001A46F00018FAF0F
:1027D80002D00001A4810001A4510001D8B412D094
:1027E8000001A429D8A409D0000E00018D6F000EA5
:1027F8008E6F000E8F6F000E906F00018F8F000E8E
:10280800000108D0000E00018D6F000E8E6F000EC3
:102818008F6F000E906F00019451800B0001991B7F
:102828000001945194250001A56F000193AF02D0D7
:102838000001A5810001A5510001D8B412D0000102
:10284800A529D8A409D0000E0001916F000E926F3F
:10285800000E936F000E946F0001938F000E00011D
:1028680008D0000E0001916F000E926F000E936F5A
:10287800000E946F00019151000192110001931113
:1028880000019411D8A417D0000E00018D6F000E1E
:102898008E6F000E8F6F000E906F0001800E8F13E9
:1028A8007F0E90138DC08DF08EC08EF08FC08FF08C
:1028B80090C090F012000001A4510001D8A412D0D9
:1028C800000E00018D6F000E8E6F000E8F6F000ED0
:1028D800906F8DC08DF08EC08EF08FC08FF090C03D
:1028E80090F012000001A5510001956F966B000150
:1028F800951F961F954B962B0001A4510001976FC9
:10290800986B00019551000197270001965100012D
:1029180098237F0E0001972500019E6F000E00018D
:10292800982100019F6F8DC09AF08EC09BF08FC0D8
:102938009CF090C09DF0000E00018D6F000E8E6F10
:10294800000E8F6F000E906F000E0001A06F000E3A
:10295800A16F000EA26F000EA36F000E0001A56FFD
:1029680042D00001A5510001D8B417D00001D89079
:102978009A379B379C379D370001D8908D378E3713
:102988008F3790370001A3AF02D000018D8100017D
:10299800D890A037A137A237A33700019151000181
:1029A8009A5D0001925100019B5900019351000169
:1029B8009C590001945100019D59D8A012D00001E2
:1029C800A38D0001915100019A5F0001925100010D
:1029D8009B5B0001935100019C5B00019451000135
:1029E8009D5B0001A52B190E0001A565BAD7000152
:1029F8009A5100019B1100019C1100019D11D8B44E
:102A080018D00001A08115D00001D8908D378E37DD
:102A18008F3790370001A3AF02D000018D810001EC
:102A2800D890A037A137A237A33700019E07D8A0B6
:102A38009F0700018FAFE8D7000E0001A56F0001C6
:102A4800A3AF24D0FF0E0001A0150001956FFF0E63
:102A58000001A1150001966FFF0E0001A2150001EB
:102A6800976F7F0E0001A3150001986F0001955123
:102A7800000196110001971100019811D8A403D004
:102A880000018DA103D0010E0001A56F0001A55121
:102A98000001D8B423D0010E00018D27000E8E232B
:102AA8008F239023000190A119D08DC095F08EC07E
:102AB80096F08FC097F090C098F000019835983341
:102AC80097339633953395C08DF096C08EF097C0A6
:102AD8008FF098C090F000019E4B9F2B00019FBF84
:102AE80014D000019F5104E100019E29D8A00DD007
:102AF800000E00019F6F9E69000E00018D6F000E91
:102B08008E6F000E8F6F000E906F00019FBF07D071
:102B180000019F5115E100019E05D8B011D0000EAB
:102B280000019F6F000E9E6F000E00018D6F000E5A
:102B38008E6F000E8F6F000E906F000E0001996F60
:102B48009EC0A4F00001A4A103D000018F8F02D081
:102B580000018F9F0001D890A4310001906F0001FF
:102B68009951000190138DC08DF08EC08EF08FC0EA
:102B78008FF090C090F0120004013205D8A411D053
:102B8800040130511F0B0009D8A40BD0398E030E55
:102B980004013119D8A402D0010E01D0000E0001A1
:102BA800CE6F04013251D8A41200040130511F0B1A
:102BB800020AD8A41200040134510F0B0009D8B43A
:102BC8001200040134510F0B166E030E166012002A
:102BD800200E0001D219D8A41200398E040134BF86
:102BE8001BD0040134510F0B166E1650020D400E07
:102BF800F324D96E010EF420DA6EDECF1AF0DDCFA1
:102C08001BF0040134510F0B166E1650010DBC0E4B
:102C1800F324D96E000E1AD0040134510F0B166E2E
:102C28001650020D3C0EF324D96E000EF420DA6E15
:102C3800DECF1AF0DDCF1BF0040134510F0B166EF6
:102C48001650010DB90EF324D96E000EF420DA6E79
:102C5800DF50196E19B002D01A9401D01A840401F9
:102C680034BF0BD0040134510F0B166E1650020DF1
:102C7800400EF324D96E010E0AD0040134510F0B13
:102C8800166E1650020D3C0EF324D96E000EF42079
:102C9800DA6E1AC0DEFF1BC0DDFF030E0401311916
:102CA800D8A42FD01AC0D9FF1BC0DAFFDFAE1CD0C2
:102CB800040134BF0BD0040134510F0B166E1650AB
:102CC800010DBC0EF324D96E000E0AD00401345154
:102CD8000F0B166E1650010DB90EF324D96E000EA7
:102CE800F420DA6E0001DF821AC0D9FF1BC0DAFFB8
:102CF800000EDB841AC0D9FF1BC0DAFF000EDB8E82
:102D08001200040E1A1A1AC0D9FF1BC0DAFFDFAE70
:102D18001BD01AC0D9FF1BC0DAFF7F0EDF161AC0FE
:102D2800D9FF1BC0DAFF000EDB8C000E0F6E050EFC
:102D38000E6E1AC010F01BC011F0000E136E020EBA
:102D4800126E67EC30F006D01AC0D9FF1BC0DAFF4C
:102D5800000EDB8C040E1A1A19B206D01AC0D9FF5D
:102D68001BC0DAFFDFAE31D0040134BF0BD0040141
:102D780034510F0B166E1650010DBC0EF324D96E8C
:102D8800000E0AD0040134510F0B166E1650010DB7
:102D9800B90EF324D96E000EF420DA6E0001DF922A
:102DA8001AC0D9FF1BC0DAFF3B0EDF16000E0F6EEC
:102DB800050E0E6E1AC010F01BC011F0000E136E37
:102DC800020E126E67EC30F006D01AC0D9FF1BC095
:102DD800DAFF3B0EDF16040134510F0B166E165046
:102DE800010D6A0EF324176E0F0EF420186E17C02B
:102DF800D9FF18C0DAFFFE0EDF161200000E01011F
:102E0800F26F000E0101F36F000E0101F46F000E66
:102E18000101F66F030E0101F56F80A009D0A9EC3E
:102E280035F00009D8A407D0040E0001FA6F03D0CA
:102E3800000E8DEC35F00001D7A108D0A1EC35F0DB
:102E480065EC1BF00001D7516EEC34F0D8EC2DF096
:102E58000101F56F0101F505D8A407D0000E0001A6
:102E6800EF6F010E0101F36F0BD0020E0101F5198E
:102E7800D8A406D0000E0001EF6F010E0101F46F17
:102E88008EEC2EF00009D8B402D0010E01D0000E4D
:102E98000101F66F020E0001EE19D8A44BD0010112
:102EA800595105E1640E0101585DD8A043D000F0E6
:102EB8008C0E0001716F7A0E0001726F060E000110
:102EC800736F010E0001746F6FEC2FF095EC30F00A
:102ED8006DC071F06EC072F0060E0001736F010EC6
:102EE8000001746F6FEC2FF09BEC31F063C071F050
:102EF80064C072F064EC2BF071C0C5F072C0C6F00B
:102F08000001C55179EC21F00001B86F0001B851FA
:102F18000001C56FC66B060E0001766F020E000138
:102F2800776F0001C5515CEC26F0000E0101596F66
:102F3800000E586F0001EF51D8B48AD0090E000175
:102F4800EF6586D00001F951D8B482D0010E010195
:102F5800F26F000E0001EF6F7BD0FFD7D1EC34F099
:102F6800DF0E0001716F7E0E0001726F010E00010D
:102F7800736F000E0001746F6FEC2FF0350E0001B7
:102F8800716F7F0E0001726F020E0001736F010EE8
:102F98000001746F6FEC2FF0C30E0001716F7B0E90
:102FA8000001726F000E0001736F030E0001746F51
:102FB8006FEC2FF0000E0001D56F020E3BD0F3C16D
:102FC80076F0F4C177F00101F651B5EC09F000098B
:102FD800D8B44CD0D1EC34F0180E0001716F7C0ECF
:102FE8000001726F000E0001736F000E0001746F14
:102FF8006FEC2FF0290E0001716F7C0E0001726FCB
:10300800000E0001736F020E0001746F6FEC2FF059
:10301800F70E0001716F7A0E0001726F000E000149
:10302800736F030E0001746F6FEC2FF0000E000138
:10303800EE6F030E0001FA6F19D0F4C1ACF0F6C1BF
:10304800ADF0F2C1AEF00101F35164EC00F00ED026
:103058000001FA51010AD8B481D7030AD8B4AFD70E
:10306800010AD8B4EAD7070AD8A477D70001FA51D9
:1030780012000001686F000168510001D8B41ED029
:10308800000163AF1BD060C064F061C065F062C02E
:1030980066F063C067F00001641F651F661F671F45
:1030A800642B000E65236623672364C06AF065C03D
:1030B8006BF066C06CF067C06DF008D060C06AF055
:1030C80061C06BF062C06CF063C06DF000016051CC
:1030D800000161110001621100016311D8A40AD036
:1030E800000E0001606F000E616F000E626F000E2F
:1030F800636F1200960E0001696F08D00001692BFA
:103108000001D8906D336C336B336A33000E0001C5
:103118006A150001646F000E00016B150001656FF0
:10312800000E00016C150001666FFE0E00016D15A2
:103138000001676F0001645100016511000166110B
:1031480000016711D8B410D0D9D70001692B010E3E
:1031580000016A27000E6B236C236D230001D890B1
:103168006D336C336B336A33000E00016A1500014E
:10317800646F000E00016B150001656F000E000101
:103188006C150001666FFF0E00016D150001676F79
:103198000001645100016511000166110001671109
:1031A800D8B409D0D2D7000169070001D8906A378E
:1031B8006B376C376D3700016CBF04D0020E00010D
:1031C8006961F1D7000169B109D0FF0E00016A17E2
:1031D800FF0E6B177F0E6C17FF0E6D170001D8904E
:1031E800693369C064F00001656B666B676B64C026
:1031F80067F00001666B656B646B00016451000148
:103208006A130001655100016B130001665100014A
:103218006C130001675100016D1300016851000132
:10322800D8B405D0000163AF02D000016D8F6AC029
:1032380060F06BC061F06CC062F06DC063F01200AA
:103248000001695100016A6F6B6B040E00016A2767
:10325800000E6B23BC0E00016A25D96E010E000119
:103268006B21DA6E67C060F068C061F0000E000183
:10327800636F0A0E626FD8EC2FF000016051300FB7
:10328800DF6E67C060F068C061F0000E0001636F18
:103298000A0E626F52EC2EF060C067F061C068F0F1
:1032A8000001695100016A6F6B6B030E00016A2708
:1032B800000E6B23BC0E00016A25D96E010E0001B9
:1032C8006B21DA6E67C060F068C061F0000E000123
:1032D800636F0A0E626FD8EC2FF000016051300F57
:1032E800DF6E67C060F068C061F0000E0001636FB8
:1032F8000A0E626F52EC2EF060C067F061C068F091
:103308000001695100016A6F6B6B020E00016A27A8
:10331800000E6B23BC0E00016A25D96E010E000158
:103328006B21DA6E67C060F068C061F0000E0001C2
:10333800636F0A0E626FD8EC2FF000016051300FF6
:10334800DF6E67C060F068C061F0000E0001636F57
:103358000A0E626F52EC2EF060C067F061C068F030
:103368000001695100016A6F6B6B010E00016A2749
:10337800000E6B23BC0E00016A25D96E010E0001F8
:103388006B21DA6E67C060F068C061F0000E000162
:10339800636F0A0E626FD8EC2FF000016051300F96
:1033A800DF6E67C060F068C061F0000E0001636FF7
:1033B8000A0E626F52EC2EF060C067F061C068F0D0
:1033C80000016951010DBC0EF324D96E010EF420E1
:1033D800DA6E67C060F068C061F0000E0001636FCC
:1033E8000A0E626FD8EC2FF000016051300FDF6ECB
:1033F8001200A3940001BF510001C011D8B413D02A
:10340800BFC0D9FFC0C0DAFF0001DFAE04D00001A1
:10341800676B672B02D00001676B000167510001E1
:10342800686F696B05D0000E0001696F000E686F48
:103438000001685100016911D8B402D0A3841200B8
:10344800030E5018D8A402D0000E506E5050D8A4C5
:1034580002D0A3841200020E5018D8A416D0010E70
:103468000001606F000E0001616F000E0001626FC5
:10347800000E0001636F020EF0EC25F060C0BFF093
:1034880061C0C0F0030E506E6FD05004D8A46CD049
:10349800400E0001DA6504D0400E00016B6F02D0C7
:1034A800DAC06BF000016B5100080001DA25000159
:1034B800DA6F000E0101526F050E0101536F6BC0E8
:1034C8006AF00001D851D8B413D02AD055C1D9FF19
:1034D80056C1DAFF52C1E1FF53C1E2FFDFCFE7FF78
:1034E8000101524B532B0101554B562B00016A0722
:1034F80000016A510001D8B418D0E8D755C1D9FFE6
:1035080056C1DAFF52C1E1FF53C1E2FFDFCFE7FF47
:103518000101524B532B0101554B562B00016A07F1
:1035280000016A510001D8A4E9D70001DA51D8A4F2
:1035380009D0400E00016B19D8A402D0020E01D0A8
:10354800030E506E010E0001606F000E0001616FE6
:10355800050E0001626F6BC063F0020EF0EC25F0FF
:1035680060C0BFF061C0C0F0A3841200A394000E35
:10357800676E000E656E000E6A6E6B0E0001606F5E
:103588000F0E0001616F000E0001636F000E626F85
:10359800000E0001656F020E646F89EC33F0160EA1
:1035A800626E9F0E666E7B0E646E000E0001686F81
:1035B8000B0E0001686501D010D000016851040DA0
:1035C800000EF324D96E040EF420DA6EDE6ADE6A89
:1035D800DE6ADD6A0001682BEBD7608C000E636E33
:1035E8006098609C09D06596000E396E000E316EA9
:1035F800000E336E000E326E65B6F5D7010E00016F
:10360800D36F010E0001D46F000E0001D06F000EC1
:103618000001D16F000E0001CF6F000E0001686F2E
:10362800020E0001686501D033D000016851020D17
:103638003C0EF324D96E000EF420DA6E000EDE6E16
:10364800000EDD6E00016851020D400EF324D96EA4
:10365800010EF420DA6E000EDE6E000EDD6E000143
:103668006851010DB90EF324D96E000EF420DA6EFC
:10367800000EDF6E00016851010DBC0EF324D96EF7
:10368800000EF420DA6E000EDF6E0001682BC8D73A
:10369800080E3C6E040E3D6E160E6A6E040E040192
:1036A800036F300E026F080E0401016F040E04014F
:1036B800006F0401008F000E586E000E0001D26FDB
:1036C80012000001CB4BCC2BCBC060F0CCC061F01A
:1036D800000E0001636F0A0E626FD8EC2FF0000134
:1036E800605100016111D8A412000001D783CBC03A
:1036F80060F0CCC061F0000E0001636F640E626F71
:10370800D8EC2FF00001605100016111D8A412001B
:103718000001D785CBC060F0CCC061F0030E00017A
:10372800636FE80E626FD8EC2FF000016051000162
:103738006111D8A412000001D787CBC060F0CCC0BB
:1037480061F00001626B636B600E0001646FEA0E4A
:10375800656F000E666F000E676FF2EC21F00001D6
:103768006051000161110001621100016311D8A4C8
:1037780012000001C94BCA2B0001D789C9C060F0EB
:10378800CAC061F0000E0001636F3C0E626FD8EC96
:103798002FF00001605100016111D8A4120000014E
:1037A800D78BC9C060F0CAC061F0020E0001636F18
:1037B800D00E626FD8EC2FF000016051000161114A
:1037C800D8A412000001D78DC9C060F0CAC061F04A
:1037D800050E0001636FA00E626FD8EC2FF0000198
:1037E800605100016111D8A412000001D78F000EAA
:1037F8000001CC6F000ECB6F000E0001CA6F000EE7
:10380800C96F1200A394000E676E000E656E000E5D
:103818006A6E6B0E016E0F0E026E000E046E000EC5
:10382800036E000E066E020E056E06EC34F0160EE0
:10383800626E9F0E666E7B0E646E000E096E0B0E36
:10384800096401D00ED00950040D000EF324D96E7E
:10385800040EF420DA6EDE6ADE6ADE6ADD6A092AA0
:10386800EED7608C000E636E6098609C09D06596F8
:10387800000E396E000E316E000E336E000E326E81
:1038880065B6F5D7010E0001D36F010E0001D46FA4
:10389800000E0001D06F000E0001D16F000E000174
:1038A800CF6F000E096E020E096401D02ED00950A8
:1038B800020D3C0EF324D96E000EF420DA6E000ED1
:1038C800DE6E000EDD6E0950020D400EF324D96E37
:1038D800010EF420DA6E000EDE6E000EDD6E095069
:1038E800010DB90EF324D96E000EF420DA6E000E25
:1038F800DF6E0950010DBC0EF324D96E000EF420C2
:10390800DA6E000EDF6E092ACED7080E3C6E040E62
:103918003D6E160E6A6E040E0401036F300E026FC0
:10392800080E0401016F040E0401006F0401008FEA
:10393800000E586E000E0001D26F12000001D20571
:10394800D8B460BA07D0000E656E64806488020E31
:103958000001D26F65B464A403D06594EEEC33F033
:1039680060A202D0A494120065B064A007D006EC4F
:103978001CF0A384040E0001D26F659065B864A89A
:1039880003D031EC34F0659865AC18D064AC0ED037
:10399800000E0F6E730E0E6E000E106E000E116E7E
:1039A800000E136E010E126E67EC30F0659C4F50DE
:1039B800D8A44F064F50D8B494EC27F065BA64AA3F
:1039C80002D02AEC32F065B264A20FD07F0E0F6EDF
:1039D8000E68000E106E000E116E000E136E010EB2
:1039E800126E67EC30F0000E676E040E0001D261B3
:1039F80002D0A494120064A639D0000E1F6E030EE4
:103A08001F6401D033D065A631D061CF59F0593049
:103A1800E832E8320F0B526E659659B407D052500F
:103A2800010DBC0EF324D96E000E06D05250010DC4
:103A3800B90EF324D96E000EF420DA6E0001DF709F
:103A48005250D8A403D02DEC27F00ED0000E0F6EE4
:103A5800720E0E6E590E106E000E116E000E136E61
:103A6800000E126E67EC30F01F2AC9D7A49412001A
:103A780020EE01F04450D9264550DA22DF50136E6B
:103A88001350325C000E3358D8A032C013F01350D4
:103A9800325E000E335A000E126E11D01250010D14
:103AA800380EF324D96E040EF420DA6E2EC0E1FF2E
:103AB8002FC0E2FFDFCFE7FF2E4A2F2A122A13502A
:103AC800125CD8A0EBD732503310D8B432D020EEE5
:103AD80001F04650D9264750DA22080EDF6E20EE54
:103AE80002F04650D9264750DA22380EDE6E040E10
:103AF800DD6E44C0D9FF45C0DAFFDFBC0DD046C03B
:103B0800D9FF47C0DAFF480EDF6E46C0D9FF47C06D
:103B1800DAFF000EDB8E120046C0D9FF47C0DAFF7D
:103B2800080EDF6E46C0D9FF47C0DAFF000EDB8EF5
:103B3800120020EE01F04650D9264750DA22080E2E
:103B4800DF6E20EE02F04650D9264750DA22300EBA
:103B5800DE6E040EDD6E46C0D9FF47C0DAFF040EE4
:103B6800DF6E46C0D9FF47C0DAFF000EDB8E345047
:103B78003510D8B40ED020EE34F001D80AD00500A4
:103B8800FA6EDE50FD6EDE50FE6EF850FF6EFA5093
:103B98001200319E4E50D8A4120094EC27F0120067
:103BA80092EC34F0BDEC33F0BAEC1AF0A3EC33F03D
:103BB8008A8A000E0001616F320E606FFFEC32F0EE
:103BC8008A9A010E0001616FF40E606FFFEC32F00B
:103BD800F28CF28E4BEC2CF0000E0001616F140E8B
:103BE800606FFFEC32F04BEC35F0000E0001616FB6
:103BF800140E606FFFEC32F0000E23EC35F000017C
:103C0800E96F550E0001E919D8B408D0C8EC2EF0B8
:103C1800550E0001606F000E89EC32F0000E0001B5
:103C2800E86F000E92EC35F0D1EC34F0380E00015C
:103C3800716F7D0E0001726F000E0001736F000E30
:103C48000001746F6FEC2FF01A0E0001716F7D0E7A
:103C58000001726F000E0001736F010E0001746F96
:103C68006FEC2FF0290E0001716F7D0E0001726F4D
:103C7800000E0001736F030E0001746F6FEC2FF0DC
:103C8800030E0001616FE80E606FFFEC32F015D093
:103C9800FFD7C6EC26F0010E0001E86F010E97EC85
:103CA80035F00BD002EC17F0040AD8A406D0000EA9
:103CB8000001E86F000E92EC35F00001E851000AAF
:103CC800D8B4E7D7010AD8B4EDD7E2D7800E0401FB
:103CD8003019D8A41200C00E396E7CD0660E366E2C
:103CE800790E376E000E3B6E120E3A6E120004010A
:103CF8003251D8A43ED004013251020DB90EF3243A
:103D0800F66E750EF420F76E0900F5CF36F00A004E
:103D1800F5CF37F0020E3624016E000E3720026E02
:103D280001C0F6FF02C0F7FFF86A070EF76403D078
:103D38000800F55005D0F6CFE9FFF7CFEAFFEF50BE
:103D48003A6E030E3624016E000E3720026E01C053
:103D5800F6FF02C0F7FFF86A070EF76403D0080001
:103D6800F55005D0F6CFE9FFF7CFEAFFEF503B6EED
:103D78001200000E396E1200030E0401326124D0C5
:103D880004013251020DB30EF324F66E750EF420C1
:103D9800F76E0900F5CF36F00A00F5CF37F036C0D8
:103DA800F6FF37C0F7FFF86A070EF76403D008007C
:103DB800F55005D0F6CFE9FFF7CFEAFFEF50016ED7
:103DC80001503A6E3B6A1200000E396E1200000E66
:103DD800396E120004013351010AD8B47FD7030A9F
:103DE800D8B485D7010AD8B4C7D7F1D7000162354E
:103DF80063350001696F00016951D8A40AD0000E2B
:103E08000001606F000E616F000E626F000E636F3D
:103E1800120060C064F061C065F062C066F063C003
:103E280067F0200E06D00001D890673366336533FB
:103E38006433E82EF8D7000164510001686F00016F
:103E4800628FFF0E00016017FF0E6117FF0E6217E9
:103E5800000E6317960E0001695F000169AF1AD062
:103E680000016951800A970FD8B00AD0000E0001EE
:103E7800606F000E616F000E626F000E636F1200BC
:103E88000001D89063336233613360330001693FC6
:103E9800F7D71BD01F0E0001696512D0000E000174
:103EA800606F000E616F000E626F000E636F12008C
:103EB8000001D890603761376237633700016907BE
:103EC800000169510001D8A4F3D70001685100012D
:103ED800D8B409D00001631F621F611F606D000E16
:103EE80061236223632360C060F061C061F062C037
:103EF80062F063C063F01200000E00016E6F81A0D3
:103F0800FED746EC34F0010E74EC35F0C290F29E08
:103F1800F29EF29C8D948A948A968A988A9A8B90BB
:103F28008B9295680F015E69000E8C6EA0920F014E
:103F38005B81A08CF086F2888784F286000E81B2BD
:103F4800010E00016E6F000E81B0010E00016E6F50
:103F5800000E82B4010E00016E6F0001FB51D8A45F
:103F6800D180F290F292F090A19C00F000F0030052
:103F780000F000F0D19073EC31F0F296F096F298E0
:103F88008794A09CF28E48EC31F0F2A0F2B204D0F3
:103F9800F0B002D0A1AC12D0F290F292F090010EE3
:103FA80000016E6F000E74EC35F0BDEC33F08D84BB
:103FB800FB0EB36E500EB26EA08208D00A0E00013E
:103FC800EF6F000E00016E6F8D94A0920F015B9150
:103FD8004BEC2CF0000E0001616F280E606FFFECB7
:103FE80032F04BEC2CF0000E0001616F280E606F70
:103FF800FFEC32F000016E511200609839BE3BD0E0
:1040080031AE0ED0020E516E0001D151D8B4B3ECCE
:104018002BF0000E0001D46F000E0001D36F1200C8
:1040280020EE01F04650D9264750DA22080EDF6EFE
:1040380020EE02F04650D9264750DA22300EDE6EC6
:10404800040EDD6E46C0D9FF47C0DAFF0C0EDF6EE6
:1040580046C0D9FF47C0DAFF000EDB8E3CC0D9FF4F
:104068003DC0DAFF040EDF6E3CC0D9FF3DC0DAFF69
:10407800000EDB8E1200040130AF13D0010E516E1A
:104088000001D051D8B4B3EC2BF0000E0001D46F6E
:10409800000E0001D36F4E50D8A4120094EC27F004
:1040A8001200020E516E20EE01F04650D9264750FC
:1040B800DA22080EDF6E20EE02F04650D92647506D
:1040C800DA22300EDE6E040EDD6E46C0D9FF47C020
:1040D800DAFF040EDF6E46C0D9FF47C0DAFF000ED4
:1040E800DB8E000E0001D46F000E0001D36F4E501E
:1040F800D8A4120094EC27F01200010E0001786F8A
:10410800F40E776F000E0001796FD1EC34F0010ED8
:104118000001716F7E0E0001726F000E0001736F57
:10412800000E0001746F6FEC2FF081B281A001D0F6
:104138000FD07D0E0001716F7E0E0001726F000EB0
:104148000001736F030E0001746F6FEC2FF047D0FE
:10415800280E0001716F7E0E0001726F000E0001C3
:10416800736F010E0001746F6FEC2FF038D081B2BD
:1041780013D00E0E0001716F7E0E0001726F000EDB
:104188000001736F020E0001746F6FEC2FF00001D5
:104198007951080F0001796F81B013D01B0E00010F
:1041A800716F7E0E0001726F000E0001736F030EB7
:1041B8000001746F6FEC2FF000017951800F00013E
:1041C800796F880E00017919D8B412009C0E00018D
:1041D800766FD70EE82EFED7762FFCD700F00001B9
:1041E8007707D8A0780700017729C1E1000178296D
:1041F800D8B41200BCD70001646FFA0E0001636FD7
:10420800580EE82EFED7632FFCD700D0FA0E000117
:10421800636F580EE82EFED7632FFCD700D0FA0E36
:104228000001636F580EE82EFED7632FFCD700D02D
:10423800000164510001D8B42CD0E60E0001616F72
:10424800790E0001626FD6EC33F0FA0E0001636F4D
:10425800580EE82EFED7632FFCD700D0FA0E0001C7
:10426800636F580EE82EFED7632FFCD700D0FA0EE6
:104278000001636F580EE82EFED7632FFCD700D0DD
:10428800000E0001616F7A0E0001626FD6EC33F008
:104298001200B20E0001616F790E0001626FD6EC58
:1042A80033F0FA0E0001636F580EE82EFED7632F25
:1042B800FCD700D0FA0E0001636F580EE82EFED727
:1042C800632FFCD700D0FA0E0001636F580EE82E5A
:1042D800FED7632FFCD700D0CC0E0001616F790E9A
:1042E8000001626FD6EC33F012000001A66FCD0E0C
:1042F8000001786FCC0E796F4C0E7A6F400E7B6F91
:104308000001A6510001606F616B626B636B000E68
:104318003DEC18F060C074F061C075F062C076F0D2
:1043280063C077F03EEC0FF074C08DF075C08EF06E
:1043380076C08FF077C090F0000E0001916F000EEC
:10434800926F800E936F440E946FE0EC13F08DC063
:10435800A8F08EC0A9F08FC0AAF090C0ABF0000EF4
:104368000001646F000E656F000E666FBF0E676F09
:10437800A8C060F0A9C061F0AAC062F0ABC063F049
:10438800EAEC0CF060C074F061C075F062C076F0C1
:1043980063C077F0000E0001786F000E796FC80EC9
:1043A8007A6F420E7B6F3EEC0FF074C0A8F075C0B8
:1043B800A9F076C0AAF077C0ABF0A8C060F0A9C099
:1043C80061F0AAC062F0ABC063F0FAEC1EF0000125
:1043D80060510001A76F0001A7511200000E0001F3
:1043E800696F000163AF0CD00001631F621F611F7A
:1043F800606D000E612362236323010E0001696F63
:10440800000167AF09D00001671F661F651F646D53
:10441800000E6523662367230001645100016511BE
:104428000001661100016711D8B43AD0010E0001ED
:10443800686F08D00001D8906437653766376737EA
:104448000001682B000167AFF5D700016451000136
:10445800605D00016551000161590001665100016C
:1044680062590001675100016359D8A010D00001BA
:1044780064510001605F000165510001615B00014A
:1044880066510001625B000167510001635B000136
:10449800D89067336633653364330001682FD5D706
:1044A800000169510001D8B409D00001631F621FDF
:1044B800611F606D000E61236223632360C060F09A
:1044C80061C061F062C062F063C063F0120091ECF9
:1044D8002CF0D1EC34F0590E0001716F7F0E000101
:1044E800726F000E0001736F000E0001746F6FECA5
:1044F8002FF0720E0001716F7F0E0001726F000EB7
:104508000001736F010E0001746F6FEC2FF06A0EDB
:104518000001716F7F0E0001726F000E0001736F52
:10452800020E0001746F6FEC2FF00E0E0001626F27
:10453800020E0001636F430E6EEC2AF09BEC31F023
:1045480063C071F064C072F064EC2BF071C0C5F008
:1045580072C0C6F00001C55179EC21F00001AC6FC2
:104568000001AC510001C56FC66B0A0E0001766FE1
:10457800020E0001776F0001C5515CEC26F000F0D7
:104588008C0E0001716F7A0E0001726F0A0E000125
:10459800736F010E0001746F6FEC2FF095EC30F023
:1045A8006DC071F06EC072F00A0E0001736F010EDB
:1045B8000001746F6FEC2FF01200000E0001D96F2C
:1045C8000001C1510001C211D8B413D0C1C0D9FF34
:1045D800C2C0DAFF0001DFAE04D000016A6B6A2BAB
:1045E80002D000016A6B00016A5100016B6F6C6BAD
:1045F80005D0000E00016C6F000E6B6F00016B514F
:1046080000016C11D8A44BD0000120EE01F0C1517B
:10461800D926C251DA2200016951DE5CD8B00AD02D
:10462800000120EE01F0C151D926C251DA22DF5033
:104638000001696F000E0001D96F18D00001D9512F
:10464800010D400EF324D96E050EF420DA6E000138
:10465800D951010DF35000016725E16EF4500001B6
:104668006821E26EDFCFE7FF0001D92B0001695115
:104678000001D95DD8A0E2D7000E0001606F400E9E
:104688000001616F050E0001626F400E0001636F4B
:10469800020EF0EC25F060C0C1F061C0C2F000016C
:1046A800D95112001F0E0001D265120060B212002B
:1046B8004C50D8A413D0800E0001676F020E000181
:1046C800686F400E0001696FE1EC22F04A6E4A50B3
:1046D800D8B404D0010E4C6E000E4D6E4C50D8A4C8
:1046E800ACA212D04D50010D800EF324D96E020EEB
:1046F800F420DA6EDF5008EC32F04D2A4A504D189B
:10470800D8A402D0000E4C6E5350D8B424D0B2ECCA
:1047180035F00009D8B41FD03F0E4B601CD000F014
:10472800E5EC31F000016D6F4B50010D800EF32464
:10473800D96E020EF420DA6E6DC0DFFF4B2A4B50A3
:10474800010D800EF324D96E020EF420DA6E000EED
:10475800DF6E000E566E5050D8A411D04B50D8B40E
:104768000ED0800E0001606F020E0001616F4BC019
:1047780062F081EC34F0A5EC35F0000E4B6EFDECE8
:1047880019F01200398E6B0E016E0F0E026E000EBC
:10479800046E000E036E000E066E020E056E06EC29
:1047A80034F0000E016E040E026E000E046E000E50
:1047B800036E000E066E300E056E06EC34F0608C4B
:1047C800000E166E020E166401D016D01650010D9A
:1047D800B90EF324D96E000EF420DA6E000EDF6EE7
:1047E8001650010DBC0EF324D96E000EF420DA6EBB
:1047F800000EDF6E162AE6D7F30E016E000E026E6B
:10480800000E046E000E036E000E066E020E056E9C
:1048180006EC34F0609C080E3C6E040E3D6E000EF3
:10482800446E040E456E44C046F045C047F032C49D
:1048380058F05850D8A404D0100E0001D26F1200BE
:10484800000E0F6E010E0E6E580E106E000E116ED9
:10485800000E136E010E126E67EC30F0200E000190
:10486800D26F12003CC0D9FF3DC0DAFF000EDFBC9A
:10487800010E126E040E3C1A080E0001D219D8A4BB
:104888000CD0040132517F0B636E6350D8B402D050
:10489800100E01D0040E0001D26F5104D8A43AD0F2
:1048A80020EE02F03C50D9263D50DA22380EDE6E5A
:1048B800040EDD6EFBEC27F0020E5718D8A40DD0BD
:1048C8003CC0D9FF3DC0DAFF040EDF6E3CC0D9FF03
:1048D8003DC0DAFF000EDB8E12001250D8A40DD0B6
:1048E8003CC0D9FF3DC0DAFF480EDF6E3CC0D9FF9F
:1048F8003DC0DAFF000EDB8E12003CC0D9FF3DC080
:10490800DAFF080EDF6E3CC0D9FF3DC0DAFF000EAB
:10491800DB8E120031AE13D034503510D8B40ED01F
:1049280020EE34F001D80AD00500FA6EDE50FD6E94
:10493800DE50FE6EF850FF6EFA501200319E000EE7
:10494800516E12000001696F000166510001676F26
:10495800686B020E00016727000E6823BC0E000179
:104968006725D96E010E00016821DA6E69C060F012
:104978000001616B000E0001636F0A0E626FC2ECEA
:104988002AF000016051300FDF6E0A0E0001606FDF
:104998000001695139EC30F00001696F000166517E
:1049A8000001676F686B010E00016727000E68231E
:1049B800BC0E00016725D96E010E00016821DA6E70
:1049C80069C060F00001616B000E0001636F0A0EA0
:1049D800626FC2EC2AF000016051300FDF6E0A0EE0
:1049E8000001606F0001695139EC30F00001696F16
:1049F80000016651010DBC0EF324D96E010EF4209E
:104A0800DA6E69C060F00001616B000E0001636F2F
:104A18000A0E626FC2EC2AF000016051300FDF6E9F
:104A2800120004013039E832030B0009D8A412003F
:104A380044D0398E080E0001D26F12006AEC1EF0C5
:104A48001200C6EC23F01200580E366E000E376EB8
:104A58003980010E3A6E398E12006EEC29F0120080
:104A6800C0EC15F0120004013451010DF30EF324CB
:104A7800366E000EF420376E3980010E3A6E398E8C
:104A88001200398E04013451010DF30EF324D96E4E
:104A9800000EF420DA6E32C4DFFF1200000E0F6E33
:104AA800020E0E6E000E106E000E116E000E136ECA
:104AB800000E126E67EC30F0120004013151000A4A
:104AC800D8B4CBD7010AD8B4CBD7020AD8B4C8D740
:104AD800060AD8B4AED7030AD8B4B0D7010AD8B4F6
:104AE800DDD70F0AD8B4B0D7010AD8B4AAD7030AB9
:104AF800D8B4B9D7010AD8B4C4D7070A12000BD062
:104B080061C0F6FF62C0F7FF0800F55008EC32F00C
:104B18000001614B622B61C0F6FF62C0F7FF08001D
:104B2800F5500009D8A4ECD7000E0001676F020EFB
:104B38000001676501D011D000016751010DF350E4
:104B480000016325D96EF45000016421DA6EDF504C
:104B580008EC32F00001672BEAD7000120EE03F0E1
:104B68006351D9266451DA22DF5008EC32F0040E82
:104B78000001686F28D000016851010DF350000151
:104B88006325D96EF45000016421DA6EDF5000010C
:104B9800666F000166390F0BE2EC32F008EC32F078
:104BA80000016851010DF35000016325D96EF450DE
:104BB80000016421DA6EDF500F0BE2EC32F008ECF2
:104BC80032F00001682B000165510001685DD8A032
:104BD800D2D77BEC35F012000001646F0001605100
:104BE8000001D8B408D000016451020D3C0EF32432
:104BF800D96E000E07D000016451020D400EF32457
:104C0800D96E010EF420DA6EDECF65F0DDCF66F0E6
:104C18000001655100016611D8A407D0000E0001FB
:104C2800606F000E0001616F1200000120EE02F0BB
:104C38006551D9266651DA2261C0DEFF62C0DDFF08
:104C4800000120EE01F06551D9266651DA2263C0D1
:104C5800DFFF65C0D9FF66C0DAFF400EDF1665C00A
:104C6800D9FF66C0DAFF000EDB8665C0D9FF66C0D3
:104C7800DAFF000EDB8E000160510001D8B408D0C5
:104C880000016451020D3C0EF324D96E000E07D0CA
:104C980000016451020D400EF324D96E010EF42078
:104CA800DA6E040EDF1A65C060F066C061F01200AB
:104CB80000017F6F000E0001786F00017FAF03D005
:104CC800010E0001786F00017F517F0B00017F6F9B
:104CD8007FC060F00001616B000E0001636F0A0E77
:104CE800626FC2EC2AF000016051300F00017B6F47
:104CF8000A0E0001606F00017F5139EC30F00001AD
:104D08007F6F7FC060F00001616B000E0001636F70
:104D18000A0E626FC2EC2AF000016051300F0001E8
:104D28007A6F0A0E0001606F00017F5139EC30F094
:104D380000017F6F7FC060F00001616B000E000111
:104D4800636F0A0E626FC2EC2AF000016051300FE7
:104D58000001796F000178510001D8B403D02D0EFD
:104D68000001796F000E00017C6F790E0001716FF0
:104D7800000E0001726F76C073F077C074F06FECAC
:104D88002FF012004AD0FFD7D1EC34F0110E0001F9
:104D9800716F7F0E0001726F010E0001736F000EBC
:104DA8000001746F6FEC2FF0620E0001716F7F0EBF
:104DB8000001726F020E0001736F010E0001746F23
:104DC8006FEC2FF0350E0001716F7E0E0001726FCF
:104DD800000E0001736F020E0001746F6FEC2FF06C
:104DE800010E06D0200E0001D26101D022D0020EA1
:104DF8000001F16F1ED056EC23F0030E0001766F10
:104E0800D8EC2DF00001766F030E00017619D8B4A6
:104E180010D0020E0001F86F0CD00001F151000A09
:104E2800D8B4B2D7010AD8B4DDD7030AD8B4E3D7C7
:104E3800AAD780A004D00001F851D8B4EED700F06A
:104E4800020E0001F819D8B41200000E0001F86F24
:104E580012002D0E4F6E59C01CF0FD0E1C16D8A462
:104E680057D059C01CF0D8901C323F0E1C161C504D
:104E7800040D000EF324446E040EF420456E44C065
:104E880046F045C047F0040E461A44C0D9FF45C055
:104E9800DAFFDF30E8320F0B0D0AD8A436D0000E47
:104EA8001E6E070E1E6401D023D020EE02F044507F
:104EB800D9264550DA22DECF1CF0DDCF1DF01CC00C
:104EC800D9FF1DC0DAFF1E50010D300EF324E16E2C
:104ED800040EF420E26EDFCFE7FF20EE02F044502C
:104EE800D9264550DA22DE2A000EDD221E2AD9D71D
:104EF80020EE02F04450D9264550DA22300EDE6EFC
:104F0800040EDD6ED5EC2CF0120009EC30F0120026
:104F18005950FD0B040AD8A4120036EC24F01200F4
:104F28000001D351D8A41200010E0001D36F000173
:104F3800D451D8A41200010E0001D46F020E5118EA
:104F4800D8A415D020EE01F03C50D9263D50DA22E5
:104F5800000EDF6E3CC0D9FF3DC0DAFF480EDF6EA1
:104F68003CC0D9FF3DC0DAFF000EDB8E12005104B1
:104F7800D8A41200000E0001CD6F20EE01F04450BD
:104F8800D9264550DA22080EDF6E20EE02F0445092
:104F9800D9264550DA22300EDE6E040EDD6E44C08E
:104FA800D9FF45C0DAFF040EDF6E44C0D9FF45C003
:104FB800DAFF000EDB8E010E0001CD6F20EE01F04E
:104FC8004650D9264750DA22080EDF6E20EE02F04E
:104FD8004650D9264750DA22300EDE6E040EDD6EBA
:104FE80046C0D9FF47C0DAFF800EDF6E1200080EF8
:104FF800016E3B5010E1080E3A5CD8B00CD03AC0B4
:1050080001F05750D8A402D0010E04D05704D8A4F8
:1050180002D0020E576E01503A5E000E3B5A20EE47
:1050280001F03C50D9263D50DA2201C0DFFF380E8E
:1050380001015A6F040E01015B6F39A01CD03AD0F0
:1050480036C0F6FF37C0F7FFF86A5AC1D9FF5BC10F
:10505800DAFF070EF76403D00800F55005D0F6CF45
:10506800E9FFF7CFEAFFEF50DF6E364A372A010132
:105078005A4B5B2B01060150D8B41200E1D736C059
:10508800F6FF37C0F7FFF86A5AC1D9FF5BC1DAFFEC
:10509800070EF76403D00800F55005D0F6CFE9FFF6
:1050A800F7CFEAFFEF50DF6E364A372A01015A4B35
:1050B8005B2B01060150D8B41200E1D7056E0150F0
:1050C800D8B407D00550020D3C0EF324D96E000E5B
:1050D80006D00550020D400EF324D96E010EF420BF
:1050E800DA6EDECF06F0DDCF07F006500710D8A441
:1050F80005D0000E016E000E026E120020EE02F0C6
:105108000650D9260750DA2202C0DEFF03C0DDFFB1
:1051180020EE01F00650D9260750DA2204C0DFFF3E
:1051280006C0D9FF07C0DAFF400EDF1606C0D9FF58
:1051380007C0DAFF000EDB8606C0D9FF07C0DAFF1A
:10514800000EDB8E0150D8B407D00550020D3C0E7E
:10515800F324D96E000E06D00550020D400EF3243C
:10516800D96E010EF420DA6E040EDF1A06C001F0C3
:1051780007C002F01200000E0001606F020E00016D
:10518800606501D00ED000016051010DEF0EF324CF
:10519800D96E010EF420DA6E000EDF6E0001602B6E
:1051A800EDD7000E0001616F210E0001616501D08D
:1051B8000ED000016151010D300EF324D96E010E9D
:1051C800F420DA6E000EDF6E0001612BEDD7000EC1
:1051D8000001626F1F0E0001626501D00ED0000150
:1051E8006251010D9C0EF324D96E010EF420DA6E83
:1051F800000EDF6E0001622BEDD7000E0001636F19
:105208000F0E0001636501D0120000016351010D0A
:10521800BC0EF324D96E010EF420DA6E000EDF6E98
:105228000001632BEDD7D1EC34F03E0E0001716F15
:105238007F0E0001726F000E0001736F000E0001F7
:10524800746F6FEC2FF0970E0001716F7D0E0001E7
:10525800726F000E0001736F060E0001746F6FEC21
:105268002FF0A40E0001716F7D0E0001726F000E09
:105278000001736F080E0001746F6FEC2FF0DD0EE4
:105288000001716F7C0E0001726F000E0001736FD8
:10529800010E0001746F6FEC2FF0710E0001716F39
:1052A8007E0E0001726F000E0001736F020E000186
:1052B800746F6FEC2FF0470E0001716F7F0E0001C5
:1052C800726F000E0001736F030E0001746F6FECB4
:1052D8002FF01200000E0401386F000E0401396F20
:1052E80039D0398E0001CE05D8A440D004013883C6
:1052F8003DD0398E3BD0398E040134BF0BD0040128
:1053080034510F0B016E0150020D400EF324D96E7B
:10531800010E0AD0040134510F0B016E0150020D29
:105328003C0EF324D96E000EF420DA6EDECF02F0C4
:10533800DDCF03F002C0D9FF03C0DAFFDFAE16D01D
:1053480002C0D9FF03C0DAFFDFA410D0010E0401A8
:10535800386F0CD0040130511F0B000AD8B4C1D7E4
:10536800010AD8B4C6D7030AD8B4C5D739AE1200D3
:10537800380E366E040E376E3980020E3A6E120001
:10538800040130511F0BE806D8A41200040130397B
:10539800E832030BE806D8A4120004013451D8B44B
:1053A80033D004013405D8A412002ED0D60E366EA0
:1053B800010E376E000E3B6E080E3A6E3980398E3C
:1053C8001200D60E366E010E376E398E120036C4B4
:1053D80032F037C433F0CC0E2E6E010E2F6EDE0E77
:1053E800346E610E356E318E1200DE0E366E010E91
:1053F800376E000E3B6E070E3A6EC10E396E120004
:1054080032C4DBF0398E120004013151000AD8B4DD
:10541800CDD7010AD8B4D5D7210AD8B4D8D7010A2C
:10542800D8B4E3D7030AD8A41200EAD70001786FEA
:1054380078C060F00001616B000E0001636F0A0E16
:10544800626FC2EC2AF000016051300F00017B6FDF
:105458000A0E0001606F0001785139EC30F000014C
:10546800786F78C060F00001616B000E0001636F17
:105478000A0E626FC2EC2AF000016051300F000181
:105488007A6F0A0E0001606F0001785139EC30F034
:105498000001786F78C060F00001616B000E0001B8
:1054A800636F0A0E626FC2EC2AF000016051300F80
:1054B8000001796F000E00017C6F790E0001716F99
:1054C800000E0001726F76C073F077C074F06FEC55
:1054D8002FF0120000016A6F00016351EBEC34F009
:1054E80000016251080DF350040FC3EC34F0000EB4
:1054F80000016B6F070E00016B6501D012000001FF
:105508006B51010D000E0001646FFF0E0001656F05
:1055180000016A510001666F676B0001D890663719
:1055280067370001D890663767370001D89066372B
:1055380067370001645100016627000165510001C9
:105548006723F7C168F0F8C169F0000166510001EE
:1055580068270001675100016923F350000168279B
:10556800F4500001692368C0F6FF69C0F7FF08001E
:10557800F55002EC35F000016B2BBCD7000E000192
:10558800656F000161AF08D00001606D611FD8B080
:10559800612B010E0001656F000163AF05D00001AA
:1055A800626D631FD8B0632B000162510001631163
:1055B800D8B426D0010E0001646F06D00001D8903F
:1055C800623763370001642B000163AFF7D700012E
:1055D80062510001605D0001635100016159D8A06A
:1055E80008D0000162510001605F000163510001B1
:1055F800615B0001D890633362330001642FE7D701
:10560800000165510001D8B405D00001606D611F2B
:10561800D8B0612B60C060F061C061F012003FD06B
:1056280060C0D9FF61C0DAFFDF50D8B411D060C0C4
:10563800D9FF61C0DAFFDF500001666F62C0F6FF74
:1056480063C0F7FF0800F55000016619D8B421D0EF
:1056580062C0F6FF63C0F7FF0800F5500001666FEF
:10566800676B0001661F671F664B672B60C0D9FF19
:1056780061C0DAFFDF500001686F00016851000166
:1056880066250001606F000E000167210001616F4F
:1056980012000001604B612B0001624B632B00017B
:1056A8006407D8A0650700016429BAE100016529EB
:1056B800D8A4B6D7000E0001616F000E606F12000B
:1056C800000E0001786F000E776F000E0001766FF4
:1056D800030E0001766501D03DD071C0D9FF72C0BC
:1056E800DAFFDF50D8B436D0000176510001D8B4C3
:1056F8000FD077C060F078C061F0000E0001636FD2
:105708000A0E626F38EC33F060C077F061C078F051
:1057180071C0D9FF72C0DAFFDF500001736F00015A
:105728007351000177250001746F000E0001782184
:105738000001756FD00E000174250001776FFF0E10
:10574800000175210001786F0001714B722B000177
:10575800762BBED777C071F078C072F01200000EB9
:105768000001D06F000E0001D16F020E5118D8A4AD
:105778001FD020EE01F04650D9264750DA22080EF5
:10578800DF6E20EE02F04650D9264750DA22380E56
:10579800DE6E040EDD6E46C0D9FF47C0DAFF480E44
:1057A800DF6E46C0D9FF47C0DAFF000EDB8E12005D
:1057B8003A500401365D3B5004013759D8B004D043
:1057C80036C43AF037C43BF0FBEC27F020EE02F089
:1057D8003C50D9263D50DA22380EDE6E040EDD6EBE
:1057E8003CC0D9FF3DC0DAFF480EDF6E3CC0D9FF90
:1057F8003DC0DAFF000EDB8E1200066E000E076E4B
:10580800040E086E0150026E036AD8900236033601
:105818000650046E056AD89004360536D8900436CA
:1058280005360250042603500522D8900436053662
:10583800D89004360536045007260550082207C0BC
:10584800D9FF08C0DAFFDF9E0150D8A407D0065060
:10585800020D400EF324D96E010E06D00650020D3B
:105868003C0EF324D96E000EF420DA6E07C0DEFF7A
:1058780008C0DDFF07C0D9FF08C0DAFFDF9C20EEB3
:1058880004F00750D9260850DA22DF8C1200000EE7
:105898000001676F000E0001666F000E656FAC9A1D
:1058A8008B9C000E0001616F0A0E606FFFEC32F0F6
:1058B800AC8A000E0001616F050E606FFFEC32F0DC
:1058C800550EAD6EACA2FED7FD0E0001616F7F0EC6
:1058D8000001626FD6EC33F0000E0001616F280EF4
:1058E800606FFFEC32F013D08EEC2EF00009D8A4D4
:1058F8000BD00001654B662B890E0001655D130E08
:1059080000016659D8A003D0010E0001676F00019D
:1059180067510001D8B41200E7D7000E0001666F86
:10592800000E656F970E0001616F790E0001626FBE
:10593800D6EC33F00BD00001654B662B510E0001FD
:10594800655DC30E00016659D8B005D08EEC2EF007
:105958000009D8B4F0D7000E0001666F000E656F1D
:105968007C0E0001616F790E0001626FD6EC33F096
:105978000BD00001654B662B510E0001655DC30E0F
:1059880000016659D8B005D08EEC2EF00009D8B4C5
:10599800F0D7000E0001616F640E606FFFEC32F00B
:1059A8001200000E576E000E4E6E000E0001D06FF2
:1059B800000E0001D16F000E0001CD6F000E516E78
:1059C8003CC0D9FF3DC0DAFF7F0EDF16040E3C1A3B
:1059D8003CC0D9FF3DC0DAFF7F0EDF16040E3C1A2B
:1059E80046C0D9FF47C0DAFF7F0EDF16000E396EBA
:1059F800000E3B6E000E3A6E000E316E000E336ED6
:105A0800000E326E15EC25F0000E0F6E030E0E6EB2
:105A1800000E106E000E116E000E136E000E126E48
:105A280067EC30F001EC20F01200000E096E000E59
:105A38000A6E000E0B6E000E0C6E05500610071055
:105A48000810D8B42AD0010E0D6E06D0D8900536AD
:105A58000636073608360D2A08AEF8D7D890093624
:105A68000A360B360C360550015C065002580750B2
:105A7800035808500458D8A009D00550015E0650B4
:105A8800025A0750035A0850045A0980D89008321D
:105A98000732063205320D2EE1D709C001F00AC0DF
:105AA80002F00BC003F00CC004F01200E20E0DEC83
:105AB80035F08A84040E0001626F1C0EE82EFED7B2
:105AC800622FFCD700D08A94200E0001626F2A0E44
:105AD800E82EFED7622FFCD78A84100E0001626F71
