:0400000062EF00F0BB
:100008005B82FACF20F0FBCF21F0E9CF22F0EACFD4
:1000180023F0E1CF24F0E2CF25F0D9CF26F0DACFD4
:1000280027F0F3CF28F0F4CF29F0F6CF2AF0F7CF56
:100038002BF0F8CF2CF0F5CF2DF09DB09EA004D07A
:100048005CEC35F089EC35F0A0B2A1A203D08EECBF
:1000580034F016D09DBA9EAA05D086EC35F048EC4F
:1000680033F00ED09DB89EA803D02DEC33F008D005
:10007800A0BCA1AC03D094EC35F002D07CEC1CF011
:100088002DC0F5FF2CC0F8FF2BC0F7FF2AC0F6FFE4
:1000980029C0F4FF28C0F3FF27C0DAFF26C0D9FF24
:1000A80025C0E2FF24C0E1FF23C0EAFF22C0E9FF28
:1000B80021C0FBFF20C0FAFF5B921100F0EF2DF08A
:1000C8000001B56F000E0001B06F0001AE510001D4
:1000D800D8B460EF09F00001FB51D8B460EF09F023
:1000E8000001FC510001F05DD8A0DCD099EC28F0AB
:1000F800000E0001C26F000EC16F000E0001C66F36
:10010800000EC56F00F06BEC2CF0000E0001B16F13
:100118006FEC30F06DC071F06EC072F03EEC2BF0F9
:1001280071C0C1F072C0C2F047EC35F060C071F028
:1001380061C072F0060E0001736F010E0001746F4A
:1001480049EC2FF0C1C067F0C2C068F0040E00018E
:10015800696FFEEC18F075EC31F063C071F064C0A3
:1001680072F03EEC2BF071C0C5F072C0C6F0000111
:10017800C55153EC21F00001AF6F0001AF510001F0
:10018800C56FC66B090E0001666F0001C55180EC92
:1001980024F0000E0001F06FABEC34F0320E0001D9
:1001A800716F7C0E0001726F000E0001736F000EFC
:1001B8000001746F49EC2FF0350E0001716F7E0E4F
:1001C8000001726F000E0001736F010E0001746F61
:1001D80049EC2FF0730E0001716F7D0E0001726FF4
:1001E800000E0001736F020E0001746F49EC2FF0CE
:1001F80047EC35F060C071F061C072F0030E000189
:10020800736F020E0001746F49EC2FF00B0E0001A2
:10021800766F020E0001776F0001C55136EC26F0AB
:1002280062EC35F00001EA6F0001EA510001D8A440
:1002380002D0050E07D0DF0E0001EA6505D00001E7
:10024800EA51CE0F0001EA6F0A0E0001766F010E27
:100258000001776F0001EA51F4EC29F0000E00016B
:10026800666F0001EA5180EC24F0200E0101B96F9D
:1002780000F02E0E0001616F7D0E0001626FB60E58
:100288000001636F010E0001646F0C0E0001656FC1
:100298005DEC25F0070E0001EF6F080E0001EE6F10
:1002A80060EF09F00001F951D8B40AD00001F02B31
:1002B8000F0E0001EE6F010E0001AC6F60EF09F048
:1002C800000E0001F06F60EF09F0FFD70001B55193
:1002D8000001D8A405D00001AC510001D8B4120027
:1002E800ABEC34F0CD0E0001716F7A0E0001726F25
:1002F800000E0001736F000E0001746F49EC2FF0BF
:10030800330E0001716F7B0E0001726F000E000149
:10031800736F010E0001746F49EC2FF0840E000119
:10032800716F7C0E0001726F000E0001736F030E77
:100338000001746F49EC2FF0060E0001EE6F1200F9
:100348000001B5510001D8B430D0ABEC34F0BC0E8C
:100358000001716F7A0E0001726F000E0001736F59
:10036800000E0001746F49EC2FF0AB0E0001716FA5
:100378007A0E0001726F000E0001736F010E00010A
:10038800746F49EC2FF0840E0001716F7C0E000130
:10039800726F000E0001736F030E0001746F49EC59
:1003A8002FF00A0E0001EE6F12000001AC5100019F
:1003B800D8B41200000E0001F06FABEC34F0DD0E83
:1003C8000001716F7B0E0001726F000E0001736FE8
:1003D800000E0001746F49EC2FF0660E0001716F7A
:1003E8007D0E0001726F000E0001736F010E000197
:1003F800746F49EC2FF0550E0001716F7A0E0001F1
:10040800726F000E0001736F030E0001746F49ECE8
:100418002FF099EC28F062EC35F00001EA6F00014A
:10042800EA510001D8A402D0050E07D0DF0E000162
:10043800EA6505D00001EA51CE0F0001EA6F0C0E03
:100448000001766F010E0001776F0001EA51F4ECAC
:1004580029F0000E0001666F0001EA5180EC24F0DB
:10046800200E0101B96F000E0001C26F000EC16FAE
:10047800000E0001C66F000EC56F00F06BEC2CF08B
:10048800010E0001616FF40E606FD9EC32F0000EBE
:100498000001B26F6FEC30F06DC071F06EC072F099
:1004A8003EEC2BF071C0C1F072C0C2F0C1C067F061
:1004B800C2C068F0040E0001696FFEEC18F000F08D
:1004C80000F075EC31F063C071F064C072F03EEC7E
:1004D8002BF071C0C5F072C0C6F00001C55153ECD5
:1004E80021F00001AF6F0001AF510001C56FC66B6D
:1004F800090E0001666F0001C55180EC24F000F080
:10050800070E0001EE6F12000001B5510001D8B4CA
:1005180011D02E0E0001616F7D0E0001626FB60EC4
:100528000001636F010E0001646F0C0E0001656F1E
:100538005DEC25F00001AC510001D8B411D0650E76
:100548000001616F7E0E0001626FB60E0001636FDD
:10055800010E0001646F0C0E0001656F5DEC25F063
:100568000001B5510001D8A405D00001AC5100012B
:10057800D8B41200ABEC34F04D0E0001716F7E0E52
:100588000001726F000E0001736F000E0001746F9E
:1005980049EC2FF0410E0001716F7E0E0001726F61
:1005A800000E0001736F010E0001746F49EC2FF00B
:1005B8000C0E0001766F010E0001776F0001EA5101
:1005C800F4EC29F0730E0001716F7D0E0001726F5B
:1005D800000E0001736F020E0001746F49EC2FF0DA
:1005E80047EC35F060C071F061C072F0030E000195
:1005F800736F020E0001746F49EC2FF00B0E0001AF
:10060800766F020E0001776F0001C55136EC26F0B7
:10061800899C080E0001EE6F12000001AD51000127
:10062800D8B43BD1560E0001606F010E0001616F16
:10063800F80E0001626F7F0E0001636FF6EC30F078
:100648000001605100016111D8A404D0898C080E02
:100658000001EE6F560E0001606F010E0001616F20
:10066800AB0E0001626F7F0E0001636F000E000188
:10067800656F060E646FEDEC2AF000016051000111
:100688006111D8A489D0070E0001B46F0001B451DC
:10069800010D560EF324D96E010EF420DA6EDF50E8
:1006A8000101E96F0001B42B0001B451010D560E90
:1006B800F324D96E010EF420DA6EDF500101EA6FDF
:1006C8000001B42B200E0101EA19D8B415D000019D
:1006D800B451010D560EF324D96E010EF420DA6ED2
:1006E800DF500101EB6F0001B42B200E0101EB1963
:1006F800D8B402D00001B42B000E0001B36F3F0E36
:100708000001B36501D029D00001B451010D560E86
:10071800F324D96E010EF420DA6E0001B351010DF5
:10072800960EF324E16E010EF420E26EDFCFE7FFB0
:100738000001B351010D960EF324D96E010EF42079
:10074800DA6EDF50D8B403D00001B42B03D0400ECA
:100758000001B36F0001B32BD2D7898E899C000E9C
:100768000001716F7B0E0001726F000E0001736F44
:10077800020E0001746F49EC2FF0780E0001716FC2
:100788007A0E0001726F000E0001736F030E0001F4
:10079800746F49EC2FF078D0560E0001606F010E8F
:1007A8000001616FB20E0001626F7F0E0001636F7E
:1007B800000E0001656F060E646FEDEC2AF0000173
:1007C800605100016111D8A410D0899CBB0E0001B2
:1007D800716F7B0E0001726F000E0001736F030EC4
:1007E8000001746F49EC2FF04FD0560E0001606F76
:1007F800010E0001616FA40E0001626F7F0E0001FF
:10080800636F000E0001656F060E646FEDEC2AF051
:100818000001605100016111D8A40FD0420E0001FF
:10082800716F7A0E0001726F000E0001736F030E74
:100838000001746F49EC2FF027D0560E0001606F4D
:10084800010E0001616F9D0E0001626F7F0E0001B5
:10085800636F000E0001656F060E646FEDEC2AF001
:100868000001605100016111D8A40ED0B40E00013E
:10087800716F7C0E0001726F000E0001736F030E22
:100888000001746F49EC2FF0FA0E0001AF6F580E9B
:10089800E82EFED7AF2FFCD700D00001B5510001DC
:1008A800D8A405D00001AC510001D8B41200ABECBB
:1008B80034F0CD0E0001716F7A0E0001726F000ED8
:1008C8000001736F000E0001746F49EC2FF0330EB6
:1008D8000001716F7B0E0001726F000E0001736FD3
:1008E800010E0001746F49EC2FF0840E0001716F46
:1008F8007C0E0001726F000E0001736F030E000181
:10090800746F49EC2FF0060E0001EE6F1200000123
:10091800B5510001D8B430D0ABEC34F0640E00010E
:10092800716F7C0E0001726F000E0001736F000E74
:100938000001746F49EC2FF0540E0001716F7C0EAA
:100948000001726F000E0001736F010E0001746FD9
:1009580049EC2FF0840E0001716F7C0E0001726F5C
:10096800000E0001736F030E0001746F49EC2FF045
:10097800010E0001EE6F12000001AC510001D8B465
:100988001200ABEC34F0899E430E0001716F7C0EAF
:100998000001726F000E0001736F000E0001746F8A
:1009A80049EC2FF0CB0E0001716F7E0E0001726FC3
:1009B800000E0001736F010E0001746F49EC2FF0F7
:1009C800E90E0001716F010E0001726F090E00013E
:1009D800736F010E0001746F49EC2FF0520E000185
:1009E800716F7E0E0001726F000E0001736F020EB0
:1009F8000001746F49EC2FF0960E0001716F010E23
:100A08000001726F060E0001736F020E0001746F11
:100A180049EC2FF0A00E0001716F010E0001726FFA
:100A2800000E0001736F030E0001746F49EC2FF084
:100A38000B0E0001EE6F12000001B5510001D8A4A1
:100A480005D00001AC510001D8B41200ABEC34F071
:100A5800BC0E0001716F7A0E0001726F000E00016A
:100A6800736F000E0001746F49EC2FF0AB0E00019C
:100A7800716F7A0E0001726F000E0001736F010E24
:100A88000001746F49EC2FF0840E0001716F7C0E29
:100A98000001726F000E0001736F030E0001746F86
:100AA80049EC2FF00A0E0001EE6F12000001B5515B
:100AB8000001D8B443D0ABEC34F0210E0001716FC3
:100AC8007C0E0001726F000E0001736F000E0001B2
:100AD800746F49EC2FF00001F951D8B40FD0D40E3F
:100AE8000001716F7C0E0001726F000E0001736FC0
:100AF800020E0001746F49EC2FF00ED0E30E0001D6
:100B0800716F7C0E0001726F000E0001736F020E90
:100B18000001746F49EC2FF0740E0001716F7C0EA8
:100B28000001726F000E0001736F030E0001746FF5
:100B380049EC2FF00C0E0001EE6F12000001AC51D1
:100B48000001D8B41200ABEC34F0640E0001716FF0
:100B58007C0E0001726F000E0001736F000E000121
:100B6800746F49EC2FF0810E0001716F7F0E000148
:100B7800726F000E0001736F010E0001746F49EC73
:100B88002FF07A0E0001716F7F0E0001726F000E58
:100B98000001736F020E0001746F49EC2FF0FB0E19
:100BA8000001716F7F0E0001726F0A0E0001736FF2
:100BB800020E0001746F49EC2FF06BEC2CF0020E62
:100BC8000001EE6F12000001B5510001D8B4BCD08D
:100BD800ABEC34F0220E0001716F7B0E0001726FD6
:100BE800000E0001736F000E0001746F49EC2FF0C6
:100BF800110E0001716F7B0E0001726F000E000173
:100C0800736F010E0001746F49EC2FF0880E00011C
:100C1800716F7F0E0001726F000E0001736F020E7C
:100C28000001746F49EC2FF0C30E0001716F7F0E45
:100C38000001726F0C0E0001736F020E0001746FD9
:100C480049EC2FF05AD0CC0E0001716F7D0E0001D7
:100C5800726F070E0001736F020E0001746F49EC8A
:100C68002FF060D0E10E0001716F7F0E0001726FEE
:100C7800070E0001736F020E0001746F49EC2FF02C
:100C880051D0ED0E0001716F7F0E0001726F070EDB
:100C98000001736F020E0001746F49EC2FF042D00F
:100CA800E50E0001716F7F0E0001726F070E0001E3
:100CB800736F020E0001746F49EC2FF033D0E90E08
:100CC8000001716F7F0E0001726F070E0001736FD4
:100CD800020E0001746F49EC2FF024D0F00E0001D1
:100CE800716F7F0E0001726F070E0001736F020EA5
:100CF8000001746F49EC2FF015D00001FD51000A76
:100D0800D8B4A1D7010AD8B4ADD7030AD8B4B9D793
:100D1800010AD8B4C5D7070AD8B4D1D7010AD8B4BC
:100D2800DDD791D7740E0001716F7C0E0001726FD0
:100D3800000E0001736F030E0001746F49EC2FF071
:100D48000D0E0001EE6F12000001AC510001D8B485
:100D580012000001F951D8B412D0000E0001F96F49
:100D6800E30E0001716F7C0E0001726F000E00012E
:100D7800736F020E0001746F49EC2FF01200010E20
:100D88000001F96FD40E0001716F7C0E0001726FC3
:100D9800000E0001736F020E0001746F49EC2FF012
:100DA80012000001B5510001D8A405D00001AC51D2
:100DB8000001D8B41200ABEC34F0640E0001716F7E
:100DC8007C0E0001726F000E0001736F000E0001AF
:100DD800746F49EC2FF0540E0001716F7C0E000106
:100DE800726F000E0001736F010E0001746F49EC01
:100DF8002FF0840E0001716F7C0E0001726F000EDF
:100E08000001736F030E0001746F49EC2FF0010E9F
:100E18000001EE6F12000001B5510001D8B4B1D045
:100E2800ABEC34F0EE0E0001716F7B0E0001726FB7
:100E3800000E0001736F000E0001746F49EC2FF073
:100E4800590E0001716F7E0E0001726F000E0001D5
:100E5800736F020E0001746F49EC2FF0740E0001DD
:100E6800716F7C0E0001726F000E0001736F030E2C
:100E78000001746F49EC2FF0030E0001EE6F69D08A
:100E8800C80E0001716F7F0E0001726F0A0E00011B
:100E9800736F020E0001746F49EC2FF072D0CC0E04
:100EA8000001716F7F0E0001726F0A0E0001736FEF
:100EB800020E0001746F49EC2FF063D0D00E0001D0
:100EC800716F7F0E0001726F0A0E0001736F020EC0
:100ED8000001746F49EC2FF054D0D40E0001716FEB
:100EE8007F0E0001726F0A0E0001736F020E00017F
:100EF800746F49EC2FF045D0D80E0001716F7F0E4A
:100F08000001726F0A0E0001736F020E0001746F08
:100F180049EC2FF036D0DC0E0001716F7F0E000116
:100F2800726F0A0E0001736F020E0001746F49ECB4
:100F38002FF027D0F40E0001716F7F0E0001726F41
:100F48000A0E0001736F020E0001746F49EC2FF056
:100F580018D00001F751000AD8B492D7010AD8B4C2
:100F68009ED7030AD8B4AAD7010AD8B4B6D7070AB5
:100F7800D8B4C2D7010AD8B4CED7030AD8B4DAD7BE
:100F88007FD70001AC510001D8B41200050E000152
:100F9800FD6103D00001FD2B6FD0000E0001FD6F35
:100FA8006BD0090E0001FC6FDC0E0001716F7F0E23
:100FB8000001726F070E0001736F020E0001746F5B
:100FC80049EC2FF01200120E0001FC6FE00E000138
:100FD800716F7F0E0001726F070E0001736F020EB2
:100FE8000001746F49EC2FF012001B0E0001FC6F1A
:100FF800EC0E0001716F7F0E0001726F070E000189
:10100800736F020E0001746F49EC2FF01200360E58
:101018000001FC6FE40E0001716F7F0E0001726F1A
:10102800070E0001736F020E0001746F49EC2FF078
:1010380012006C0E0001FC6FE80E0001716F7F0E4C
:101048000001726F070E0001736F020E0001746FCA
:1010580049EC2FF012000001FC69F00E0001716FDD
:101068007F0E0001726F070E0001736F020E000100
:10107800746F49EC2FF012000001FD51000AD8B43A
:1010880090D7010AD8B49FD7030AD8B4AED7010ABB
:10109800D8B4BDD7070AD8B4CCD7010AD8B4DBD79F
:1010A80080D70001B5510001D8B425D00001F7510F
:1010B8006BEC11F0ABEC34F0CC0E0001716F7B0ED1
:1010C8000001726F000E0001736F000E0001746F53
:1010D80049EC2FF0940E0001716F7C0E0001726FC5
:1010E800000E0001736F030E0001746F49EC2FF0BE
:1010F8000F0E0001EE6F0001AC510001D8B41200D0
:10110800060E0001F7610DD00001ED05D8A406D048
:10111800030E0001F76502D0060E04D00001F72B7C
:101128006DD0000E0001F76F69D0C80E0001716F15
:101138007F0E0001726F0A0E0001736F020E00012C
:10114800746F49EC2FF01200CC0E0001716F7F0E06
:101158000001726F0A0E0001736F020E0001746FB6
:1011680049EC2FF01200D00E0001716F7F0E0001C4
:10117800726F0A0E0001736F020E0001746F49EC62
:101188002FF01200D40E0001716F7F0E0001726FF4
:101198000A0E0001736F020E0001746F49EC2FF004
:1011A8001200D80E0001716F7F0E0001726F0A0ED7
:1011B8000001736F020E0001746F49EC2FF01200EA
:1011C800DC0E0001716F7F0E0001726F0A0E0001C4
:1011D800736F020E0001746F49EC2FF01200F40EC9
:1011E8000001716F7F0E0001726F0A0E0001736FAC
:1011F800020E0001746F49EC2FF012000001F75144
:10120800000AD8B492D7010AD8B49ED7030AD8B432
:10121800AAD7010AD8B4B6D7070AD8B4C2D7010AE0
:10122800D8B4CED7030AD8B4DAD77FD70001AC51E7
:101238000001D8B40CD05AEC1FF00009D8B404D07F
:10124800010E0001B56F03D0090E0001EF6F000118
:10125800B5510001D8B41200ABEC34F0CD0E00014A
:10126800716F7A0E0001726F000E0001736F000E2D
:101278000001746F49EC2FF0330E0001716F7B0E83
:101288000001726F000E0001736F010E0001746F90
:1012980049EC2FF0840E0001716F7C0E0001726F13
:1012A800000E0001736F030E0001746F49EC2FF0FC
:1012B800060E0001EE6F12000001EE51000AD8B4CC
:1012C8006AEF01F0010AD8B45AEF05F0030AD8B45E
:1012D80068D5010AD8B4E5D6050AD8B4A4EF01F058
:1012E800010AD8B488EF02F00F0AD8B411EF03F05E
:1012F800020AD8B48BEF04F0010AD8B420EF05F045
:10130800070AD8B460D4010AD8B485D5020AD8B47B
:101318008DD769EF01F000017B6F000E00017A6F35
:1013280008D3FFD7FD0E0001616F7E0E0001626FCA
:10133800B0EC33F091D1000177510001D8B403D05B
:101348000A0E0001D56F00017B510001D8B415D3F6
:10135800560E0001606F010E0001616FB90E0001A9
:10136800626F7F0E0001636F000E0001656F040E4F
:10137800646FEDEC2AF00001605100016111D8A4FE
:1013880033D0000E0001ED6FABEC34F0EF0E00012E
:10139800716F7A0E0001726F000E0001736F000EFC
:1013A8000001746F49EC2FF0990E0001716F7B0EEC
:1013B8000001726F000E0001736F020E0001746F5E
:1013C80049EC2FF09A0E0001716F7A0E0001726FCE
:1013D800000E0001736F030E0001746F49EC2FF0CB
:1013E8004BD00001D56FC9D2560E0001606F010EB7
:1013F8000001616FBE0E0001626F7F0E0001636F16
:10140800000E0001656F040E646FEDEC2AF0000118
:10141800605100016111D8A431D0010E0001ED6FB7
:10142800ABEC34F0EF0E0001716F7A0E0001726FB1
:10143800000E0001736F000E0001746F49EC2FF06D
:10144800990E0001716F7B0E0001726F000E000192
:10145800736F020E0001746F49EC2FF09A0E0001B1
:10146800716F7A0E0001726F000E0001736F030E28
:101478000001746F49EC2FF0020EB3D7FD0E000186
:10148800616F7E0E0001626FB0EC33F0000E000158
:10149800616F190E606FD9EC32F0E4D1000176511A
:1014A8000001D8B41ED0670E0001716F7A0E0001DA
:1014B800726F000E0001736F030E0001746F49EC28
:1014C8002FF0010E0001616FF40E606FD9EC32F05D
:1014D800E80E0001616F7D0E0001626FB0EC33F021
:1014E80079D0000177510001D8B447D2890E0001A4
:1014F800716F7A0E0001726F000E0001736F030E98
:101508000001746F49EC2FF0010E0001616FF40EB9
:10151800606FD9EC32F03C0E0001616F7D0E000166
:10152800626FB0EC33F088D100017B510001D8B470
:1015380024D2560E0001606F010E0001616FF80E93
:101548000001626F7F0E0001636FF6EC30F000015E
:10155800605100016111D8A402D0040E42D7560E82
:101568000001606F010E0001616F580E0001626F8B
:101578007D0E0001636FF6EC30F000016051000150
:101588006111D8A41FD0ABEC34F0B50E0001716F17
:101598007E0E0001726F000E0001736F000E0001D5
:1015A800746F49EC2FF01A0E0001716F7F0E000165
:1015B800726F000E0001736F010E0001746F49EC29
:1015C8002FF099D0E80E0001616F7D0E0001626F67
:1015D800B0EC33F0030E05D700017B510001D8B4FD
:1015E800CCD1560E0001606F010E0001616F230E11
:1015F8000001626F7F0E0001636FF6EC30F00001AE
:10160800605100016111D8A41FD0ABEC34F0D50EA5
:101618000001716F7E0E0001726F000E0001736F82
:10162800000E0001746F49EC2FF09F0E0001716FDE
:101638007E0E0001726F000E0001736F010E000133
:10164800746F49EC2FF0BCD0F30E0001616F7E0E71
:101658000001626FB0EC33F0010EC3D600017B517C
:101668000001D8B48AD1560E0001606F010E000146
:10167800616FF80E0001626F7F0E0001636FF6EC78
:1016880030F00001605100016111D8A402D0060EAB
:10169800A8D6560E0001606F010E0001616F580E4A
:1016A8000001626F7D0E0001636FF6EC30F00001FF
:1016B800605100016111D8A420D0ABEC34F0B50E14
:1016C8000001716F7E0E0001726F000E0001736FD2
:1016D800000E0001746F49EC2FF01A0E0001716FB3
:1016E8007F0E0001726F000E0001736F010E000182
:1016F800746F49EC2FF0090E74D6560E0001606F16
:10170800010E0001616F4A0E0001626F7D0E00013B
:10171800636FF6EC30F00001605100016111D8A44C
:1017280009D03C0E0001616F7D0E0001626FB0ECC4
:1017380033F082D0560E0001606F010E0001616F18
:10174800940E0001626F7E0E0001636FF6EC30F0BC
:1017580083D000017B510001D8B40FD1560E00018F
:10176800606F010E0001616F230E0001626F7F0E32
:101778000001636FF6EC30F0000160510001611167
:10178800D8A420D0ABEC34F0890E0001716F7E0E26
:101798000001726F000E0001736F000E0001746F7C
:1017A80049EC2FF09F0E0001716F7E0E0001726FE1
:1017B800000E0001736F010E0001746F49EC2FF0E9
:1017C800070E0FD6560E0001606F010E0001616F03
:1017D800960E0001626F7F0E0001636FF6EC30F029
:1017E8000001605100016111D8A428D0ABEC34F09D
:1017F800E90E0001716F7E0E0001726F010E00018B
:10180800736F000E0001746F49EC2FF08F0E00010A
:10181800716F7F0E0001726F020E0001736F010E6F
:101828000001746F49EC2FF03C0E0001616F7D0ED2
:101838000001626FB0EC33F0050ED3D5560E0001EF
:10184800606F010E0001616F940E0001626F7E0EE1
:101858000001636FF6EC30F0000160510001611186
:10186800D8A48BD0000EBDD5AA0E0001616F7E0EE4
:101878000001626FB0EC33F021D000017B51000110
:10188800D8B47BD0560E0001606F010E0001616F65
:101898004A0E0001626F7D0E0001636FF6EC30F0B6
:1018A8000001605100016111D8A40AD0AA0E0001FC
:1018B800616F7E0E0001626FB0EC33F0080E91D5B7
:1018C80001015651D00F0001796F79C0F7F0010E70
:1018D80000017A6F52D0000177510001D8B44DD081
:1018E8000A0E7FD5000E0001606F000E63EC32F027
:1018F80081A281B001D0FCD7FA0E0001786F580E92
:10190800E82EFED7782FFCD700D0FA0E0001786FAA
:10191800580EE82EFED7782FFCD700D0FA0E00011B
:10192800786F580EE82EFED7782FFCD700D0FF002E
:1019380024D00001D551000AD8B4F4D4010AD8B48F
:10194800FAD4030AD8B4AAD5010AD8B4EDD5070A3F
:10195800D8B442D6010AD8B481D6030AD8B4F9D685
:10196800010AD8B481D70F0AD8B487D7010AD8B4E6
:10197800B2D7030AD8B4B6D7D4D400017A5112002A
:1019880000016351800B0001706F000163516325F2
:101998000001726F000162AF02D000017281000184
:1019A80072510001D8B412D000017229D8A409D00C
:1019B800000E0001606F000E616F000E626F000E76
:1019C800636F0001628F000E000108D0000E000155
:1019D800606F000E616F000E626F000E636F000192
:1019E8006751800B0001716F00017051000171197E
:1019F800D8B402D00001708D00016751672500013D
:101A0800716F000166AF02D0000171810001715150
:101A18000001D8B412D000017129D8A409D0000E51
:101A28000001646F000E656F000E666F000E676F31
:101A38000001668F000E000108D0000E0001646FDF
:101A4800000E656F000E666F000E676F0001725121
:101A58000001715DD8B024D0000170AD03D0800EB4
:101A68000001701B72C073F071C072F073C071F026
:101A780060C073F064C060F073C064F061C073F05C
:101A880065C061F073C065F062C073F066C062F053
:101A980073C066F063C073F067C063F073C067F02B
:101AA800000E0001736F000172510001686F696BCD
:101AB8000001681F691F684B692B00017151000103
:101AC8006A6F6B6B0001685100016A270001695158
:101AD80000016B2300016BBF3DD000016B5105E194
:101AE8001A0E00016A5DD8A035D0000160510001CE
:101AF80061110001621100016311D8B402D0010E16
:101B080001D0000E0001736F000E0001606F000E1F
:101B1800616F000E626F000E636F71C072F020D0AB
:101B2800000173A107D00001D890733101090001A9
:101B3800736F03D00001D8907333000160A102D005
:101B48000001738F0001633563336233613360339F
:101B58000001722B000171510001725DD8A0E0D71D
:101B6800000170BD3FD0000172510001D8A40AD015
:101B7800000E0001606F000E616F000E626F000EB4
:101B8800636F120000016451000160270001655174
:101B980000016123000166510001622300016751C1
:101BA80000016323000163A1CCD0000173A109D017
:101BB8000001D89073330001735101090001736F5C
:101BC80003D00001D8907333000160A102D0000156
:101BD800738F00016335633362336133603300010F
:101BE800722BAFD0000164510001605D00016551A6
:101BF80000016159000166510001625900016351F9
:101C0800800A0001686F00016751800A0001685965
:101C1800D8B050D060C068F061C069F062C06AF0A6
:101C280063C06BF00001681F691F6A1F6B1F682B78
:101C3800000E69236A236B230001645100016825A3
:101C480000016C6F000165510001692100016D6F91
:101C58000001665100016A2100016E6F00016751A1
:101C680000016B2100016F6FFF0E00016C25000160
:101C7800606FFF0E00016D210001616FFF0E000112
:101C88006E210001626FFF0E00016F210001636F7A
:101C9800800E0001701B0001736D0001735100017B
:101CA800D8A418D0010E00016027000E612362231A
:101CB800632310D0000164510001605F0001655189
:101CC8000001615B000166510001625B0001675120
:101CD8000001635B000160510001611100016211A4
:101CE80000016311D8A42AD0000173510001D8A4BF
:101CF80025D0000E0001606F000E616F000E626F4C
:101D0800000E636F12000001D890603761376237A8
:101D18006337000173AF02D000016081000173A135
:101D280003D0D880000102D00001D8907337000199
:101D380072510001D8B402D000017207000162AFED
:101D4800E2D7000E0001716F000173AF0DD073C0B0
:101D580068F07F0E00016817D8A403D0000160A1C5
:101D680003D0010E0001716F000171510001D8B458
:101D780026D0010E00016027000E61236223632331
:101D8800000163A11CD060C068F061C069F062C046
:101D98006AF063C06BF000016B356B336A336933EB
:101DA800683368C060F069C061F06AC062F06BC0F7
:101DB80063F000017229D8B402D00001722B00012F
:101DC8007229D8B405D0000172510001D8A411D0ED
:101DD800000E0001606F000E616F000E626F000E52
:101DE800636F000172510001D8A403D0000E0001F6
:101DF800706F000172A103D00001628F02D0000150
:101E0800629F0001D89072310001636F000170AFCA
:101E180002D00001638F60C060F061C061F062C0F1
:101E280062F063C063F0120000017751800B00017B
:101E3800806F0001775177250001866F000176AF2A
:101E480002D000018681000186510001D8B410D06B
:101E580000018629D8A409D0000E0001746F000E75
:101E6800756F000E766F000E776F0001768F09D0C0
:101E7800000E0001746F000E756F000E766F000E75
:101E8800776F00017B51800B0001801B00017B51A3
:101E98007B250001816F00017AAF02D000018181AA
:101EA800000181510001D8B410D000018129D8A4C3
:101EB80009D0000E0001786F000E796F000E7A6F5E
:101EC800000E7B6F00017A8F09D0000E0001786F39
:101ED800000E796F000E7A6F000E7B6F0001815142
:101EE8000001D8B405D0000186510001D8A40AD059
:101EF800000E0001746F000E756F000E766F000EF5
:101F0800776F120000017A5100017403F3CF8BF050
:101F1800F4CF8CF000018B510001826F836B846BCE
:101F2800856B00018C510001876F886B896B8A6B08
:101F38000001795100017503F3CF8BF0F4CF8CF0D9
:101F480000018B5100018227000E832384238523FF
:101F580000018C5100018727000E882389238A23DA
:101F68000001785100017603F3CF8BF0F4CF8CF0A9
:101F780000018B5100018227000E832384238523CF
:101F880000018C5100018727000E882389238A23AA
:101F980084C085F083C084F082C083F00001826B26
:101FA8000001785100017503F3CF8BF0F4CF8CF06A
:101FB80000018B510001822700018C51000183230D
:101FC800000E00018423000E0001852300017951D1
:101FD80000017403F3CF8BF0F4CF8CF000018B5128
:101FE8000001822700018C5100018323000E0001AB
:101FF8008423000E0001852384C085F083C084F00B
:1020080082C083F00001826B0001785100017403E3
:10201800F3CF8BF0F4CF8CF000018B5100018227B5
:1020280000018C5100018323000E00018423000E5F
:102038000001852300017A5100017503F3CF8BF06D
:10204800F4CF8CF000018B510001872700018C51DF
:1020580000018823000E00018923000E00018A2355
:102068000001795100017603F3CF8BF0F4CF8CF0A7
:1020780000018B510001872700018C510001882342
:10208800000E00018923000E00018A2300017A5105
:1020980000017603F3CF8BF0F4CF8CF000018B5165
:1020A80000017C6F00018C5100017D6F00017E6B87
:1020B80000017F6B7EC07FF07DC07EF07CC07DF02C
:1020C80000017C6B00017C510001872700017D51D4
:1020D8000001882300017E510001892300017F51FE
:1020E80000018A2382C07CF083C07DF084C07EF02A
:1020F80085C07FF0190E06D00001D8907F337E335B
:102108007D337C33E82EF8D700017C510001872706
:1021180000017D510001882300017E5100018923BF
:1021280000017F5100018A2384C085F083C084F0B8
:1021380082C083F00001826B0001815186C07CF06F
:1021480000017D6B00017C27000E7D23820E0001BB
:102158007C2500018B6FFF0E00017D2100018C6F33
:1021680015D00001D8908737883789378A3700011A
:1021780085AF02D0000187810001D890823783376C
:102188008437853700018B07D8A08C07000189AFF9
:10219800E8D7000E0001816F000185AF24D0FF0E43
:1021A8000001821500017C6FFF0E000183150001FC
:1021B8007D6FFF0E0001841500017E6F7F0E000108
:1021C800851500017F6F00017C5100017D11000120
:1021D8007E1100017F11D8A403D0000187A103D08C
:1021E800010E0001816F000181510001D8B423D094
:1021F800010E00018727000E882389238A23000106
:102208008AA119D087C07CF088C07DF089C07EF093
:102218008AC07FF000017F357F337E337D337C3386
:102228007CC087F07DC088F07EC089F07FC08AF0CE
:1022380000018B4B8C2B00018CBF10D000018C51FE
:1022480004E100018B29D8A009D0000E0001876F96
:10225800000E886F800E896F7F0E2BD000018CBF17
:1022680007D000018C5111E100018B05D8B00DD0C9
:10227800000E0001876F000E886F000E896F000E38
:102288008A6F000E0001806F15D08BC086F0FF0E9C
:1022980000018717FF0E88177F0E8917000E8A170F
:1022A800000186A102D00001898F0001D8908631F3
:1022B80000018A6F0001805100018A1387C074F001
:1022C80088C075F089C076F08AC077F012000001E6
:1022D800646F080E00016419D8B407D2A40E000177
:1022E800616F7C0E0001626FB0EC33F0FA0E0001F2
:1022F800636F580EE82EFED7632FFCD700D0FA0E76
:102308000001636F580EE82EFED7632FFCD700D06C
:10231800FA0E0001636F580EE82EFED7632FFCD724
:1023280000D0880E0001616F7B0E0001626FB0EC77
:1023380033F0FA0E0001636F580EE82EFED7632FB4
:10234800FCD700D0FA0E0001636F580EE82EFED7B6
:10235800632FFCD700D0FA0E0001636F580EE82EE9
:10236800FED7632FFCD700D0C0D1800E0001616F6B
:102378007D0E0001626FB0EC33F0FA0E0001636F5E
:10238800580EE82EFED7632FFCD700D0FA0E0001B6
:10239800636F580EE82EFED7632FFCD700D0FA0ED5
:1023A8000001636F580EE82EFED7632FFCD700D0CC
:1023B800440E0001616F7B0E0001626FB0EC33F0D8
:1023C800FA0E0001636F580EE82EFED7632FFCD774
:1023D80000D0FA0E0001636F580EE82EFED7632F67
:1023E800FCD700D0FA0E0001636F580EE82EFED716
:1023F800632FFCD75DD18D0E0001616F7D0E00014A
:10240800626FB0EC33F0FA0E0001636F580EE82EDD
:10241800FED7632FFCD700D0FA0E0001636F580E69
:10242800E82EFED7632FFCD700D0FA0E0001636FA9
:10243800580EE82EFED7632FFCD700D0440E0001BB
:10244800616F7B0E0001626FB0EC33F0FA0E000191
:10245800636F580EE82EFED7632FFCD700D0FA0E14
:102468000001636F580EE82EFED7632FFCD700D00B
:10247800FA0E0001636F580EE82EFED7632FFCD7C3
:1024880017D19A0E0001616F7D0E0001626FB0ECEA
:1024980033F0FA0E0001636F580EE82EFED7632F53
:1024A800FCD700D0FA0E0001636F580EE82EFED755
:1024B800632FFCD700D0FA0E0001636F580EE82E88
:1024C800FED7632FFCD700D0550E0001616F7B0E3D
:1024D8000001626FB0EC33F0FA0E0001636F580E22
:1024E800E82EFED7632FFCD700D0FA0E0001636FE9
:1024F800580EE82EFED7632FFCD700D0FA0E000145
:10250800636F580EE82EFED7632FFCD7D1D0A70EE5
:102518000001616F7D0E0001626FB0EC33F0FA0EBE
:102528000001636F580EE82EFED7632FFCD700D04A
:10253800FA0E0001636F580EE82EFED7632FFCD702
:1025480000D0FA0E0001636F580EE82EFED7632FF5
:10255800FCD700D0660E0001616F7B0E0001626F30
:10256800B0EC33F0FA0E0001636F580EE82EFED778
:10257800632FFCD700D0FA0E0001636F580EE82EC7
:10258800FED7632FFCD700D0FA0E0001636F580EF8
:10259800E82EFED7632FFCD78BD0B40E0001616FF5
:1025A8007D0E0001626FB0EC33F0FA0E0001636F2C
:1025B800580EE82EFED7632FFCD700D0FA0E000184
:1025C800636F580EE82EFED7632FFCD700D0FA0EA3
:1025D8000001636F580EE82EFED7632FFCD700D09A
:1025E800770E0001616F7B0E0001626FB0EC33F073
:1025F800FA0E0001636F580EE82EFED7632FFCD742
:1026080000D0FA0E0001636F580EE82EFED7632F34
:10261800FCD700D0FA0E0001636F580EE82EFED7E3
:10262800632FFCD745D0C10E0001616F7D0E0001FC
:10263800626FB0EC33F0FA0E0001636F580EE82EAB
:10264800FED7632FFCD700D0FA0E0001636F580E37
:10265800E82EFED7632FFCD700D0FA0E0001636F77
:10266800580EE82EFED7632FFCD700D0880E000145
:10267800616F7B0E0001626FB0EC33F0FA0E00015F
:10268800636F580EE82EFED7632FFCD700D0FA0EE2
:102698000001636F580EE82EFED7632FFCD700D0D9
:1026A800FA0E0001636F580EE82EFED7632FFCD791
:1026B80000D038D0CE0E0001616F7D0E0001626F30
:1026C800B0EC33F02FD0DB0E0001616F7D0E0001FE
:1026D800626FB0EC33F026D0F20E0001616F7C0E11
:1026E8000001626FB0EC33F01DD000016451000AA4
:1026F800D8B43BD6010AD8B47ED6030AD8B4C1D61A
:10270800010AD8B404D7070AD8B447D7010AD8B4FD
:102718008AD7030AD8B4CED7010AD8B4D4D70F0AB7
:10272800D8B4DAD7FA0E0001636F580EE82EFED738
:10273800632FFCD700D0FA0E0001636F580EE82E05
:10274800FED7632FFCD700D0FA0E0001636F580E36
:10275800E82EFED7632FFCD700D02C0E0001616F46
:102768007F0E0001626FB0EC33F01200000190514F
:10277800800B0001996F0001905190250001A46F12
:1027880000018FAF02D00001A4810001A451000113
:10279800D8B412D00001A429D8A409D0000E000191
:1027A8008D6F000E8E6F000E8F6F000E906F000100
:1027B8008F8F000E000108D0000E00018D6F000EF3
:1027C8008E6F000E8F6F000E906F00019451800B7A
:1027D8000001991B0001945194250001A56F000187
:1027E80093AF02D00001A5810001A5510001D8B422
:1027F80012D00001A529D8A409D0000E0001916FBC
:10280800000E926F000E936F000E946F0001938F6D
:10281800000E000108D0000E0001916F000E926FAB
:10282800000E936F000E946F0001915100019211F8
:102838000001931100019411D8A417D0000E0001D3
:102848008D6F000E8E6F000E8F6F000E906F00015F
:10285800800E8F137F0E90138DC08DF08EC08EF07A
:102868008FC08FF090C090F012000001A4510001B9
:10287800D8A412D0000E00018D6F000E8E6F000ECE
:102888008F6F000E906F8DC08DF08EC08EF08FC050
:102898008FF090C090F012000001A5510001956FD3
:1028A800966B0001951F961F954B962B0001A4511E
:1028B8000001976F986B000195510001972700015F
:1028C8009651000198237F0E0001972500019E6F05
:1028D800000E0001982100019F6F8DC09AF08EC0F4
:1028E8009BF08FC09CF090C09DF0000E00018D6F92
:1028F800000E8E6F000E8F6F000E906F000E00019D
:10290800A06F000EA16F000EA26F000EA36F000E45
:102918000001A56F42D00001A5510001D8B417D01D
:102928000001D8909A379B379C379D370001D89083
:102938008D378E378F3790370001A3AF02D0000153
:102948008D810001D890A037A137A237A3370001A5
:10295800915100019A5D0001925100019B590001BB
:10296800935100019C590001945100019D59D8A030
:1029780012D00001A38D0001915100019A5F00015E
:10298800925100019B5B0001935100019C5B000187
:10299800945100019D5B0001A52B190E0001A5654E
:1029A800BAD700019A5100019B1100019C11000146
:1029B8009D11D8B418D00001A08115D00001D8907D
:1029C8008D378E378F3790370001A3AF02D00001C3
:1029D8008D810001D890A037A137A237A337000115
:1029E8009E07D8A09F0700018FAFE8D7000E00010F
:1029F800A56F0001A3AF24D0FF0E0001A0150001B0
:102A0800956FFF0E0001A1150001966FFF0E0001E2
:102A1800A2150001976F7F0E0001A3150001986FA2
:102A280000019551000196110001971100019811BC
:102A3800D8A403D000018DA103D0010E0001A56F19
:102A48000001A5510001D8B423D0010E00018D2743
:102A5800000E8E238F239023000190A119D08DC0E2
:102A680095F08EC096F08FC097F090C098F0000156
:102A78009835983397339633953395C08DF096C033
:102A88008EF097C08FF098C090F000019E4B9F2B5E
:102A980000019FBF14D000019F5104E100019E294D
:102AA800D8A00DD0000E00019F6F9E69000E000196
:102AB8008D6F000E8E6F000E8F6F000E906F0001ED
:102AC8009FBF07D000019F5115E100019E05D8B0B6
:102AD80011D0000E00019F6F000E9E6F000E0001C6
:102AE8008D6F000E8E6F000E8F6F000E906F000EB0
:102AF8000001996F9EC0A4F00001A4A103D00001B9
:102B08008F8F02D000018F9F0001D890A43100015F
:102B1800906F00019951000190138DC08DF08EC007
:102B28008EF08FC08FF090C090F012000401320533
:102B3800D8A411D0040130511F0B0009D8A40BD020
:102B4800398E030E04013119D8A402D0010E01D028
:102B5800000E0001CE6F04013251D8A41200040106
:102B680030511F0B020AD8A41200040134510F0B74
:102B78000009D8B41200040134510F0B166E030E6D
:102B880016601200200E0001D219D8A41200398E46
:102B9800040134BF1BD0040134510F0B166E1650BC
:102BA800020D400EF324D96E010EF420DA6EDECF4A
:102BB8001AF0DDCF1BF0040134510F0B166E1650BE
:102BC800010DBA0EF324D96E000E1AD00401345147
:102BD8000F0B166E1650020D3C0EF324D96E000E24
:102BE800F420DA6EDECF1AF0DDCF1BF00401345189
:102BF8000F0B166E1650010DB70EF324D96E000E8A
:102C0800F420DA6EDF50196E19B002D01A9401D090
:102C18001A84040134BF0BD0040134510F0B166E13
:102C28001650020D400EF324D96E010E0AD004018D
:102C380034510F0B166E1650020D3C0EF324D96E4C
:102C4800000EF420DA6E1AC0DEFF1BC0DDFF030E93
:102C580004013119D8A42FD01AC0D9FF1BC0DAFF3C
:102C6800DFAE1CD0040134BF0BD0040134510F0B6C
:102C7800166E1650010DBA0EF324D96E000E0AD046
:102C8800040134510F0B166E1650010DB70EF324C4
:102C9800D96E000EF420DA6E0001DF821AC0D9FF67
:102CA8001BC0DAFF000EDB841AC0D9FF1BC0DAFF95
:102CB800000EDB8E1200040E1A1A1AC0D9FF1BC0B0
:102CC800DAFFDFAE1BD01AC0D9FF1BC0DAFF7F0EB8
:102CD800DF161AC0D9FF1BC0DAFF000EDB8C000E0E
:102CE8000F6E050E0E6E1AC010F01BC011F0000E0C
:102CF800136E020E126E41EC30F006D01AC0D9FFE6
:102D08001BC0DAFF000EDB8C040E1A1A19B206D0AB
:102D18001AC0D9FF1BC0DAFFDFAE31D0040134BFBF
:102D28000BD0040134510F0B166E1650010DBA0E5C
:102D3800F324D96E000E0AD0040134510F0B166E1D
:102D48001650010DB70EF324D96E000EF420DA6E7A
:102D58000001DF921AC0D9FF1BC0DAFF3B0EDF1655
:102D6800000E0F6E050E0E6E1AC010F01BC011F08B
:102D7800000E136E020E126E41EC30F006D01AC02F
:102D8800D9FF1BC0DAFF3B0EDF16040134510F0BCD
:102D9800166E1650010D6A0EF324176E0F0EF420EE
:102DA800186E17C0D9FF18C0DAFFFE0EDF16120022
:102DB800000E0101EC6F000E0101ED6F000E010124
:102DC800EE6F000E0101F06F030E0101EF6F80A09E
:102DD80009D083EC35F00009D8A407D0040E00010F
:102DE800FA6F03D0000E67EC35F00001D7A108D0C8
:102DF8007BEC35F03FEC1BF00001D75148EC34F088
:102E0800B2EC2DF00101EF6F0101EF05D8A407D056
:102E1800000E0001EF6F010E0101ED6F0BD0020EE5
:102E28000101EF19D8A406D0000E0001EF6F010EC2
:102E38000101EE6F68EC2EF00009D8B402D0010E43
:102E480001D0000E0101F06F020E0001EE19D8A4A6
:102E58004BD00101555105E1640E0101545DD8A024
:102E680043D000F0730E0001716F7A0E0001726F8B
:102E7800060E0001736F010E0001746F49EC2FF00C
:102E88006FEC30F06DC071F06EC072F0060E00018C
:102E9800736F010E0001746F49EC2FF075EC31F07F
:102EA80063C071F064C072F03EEC2BF071C0C5F0E5
:102EB80072C0C6F00001C55153EC21F00001B66F95
:102EC8000001B6510001C56FC66B060E0001766F92
:102ED800020E0001776F0001C55136EC26F0000E96
:102EE8000101556F000E546F0001EF51D8B48AD01C
:102EF800090E0001EF6586D00001F951D8B482D0DF
:102F0800010E0101EC6F000E0001EF6F7BD0FFD7BF
:102F1800ABEC34F0DF0E0001716F7E0E0001726FB2
:102F2800010E0001736F000E0001746F49EC2FF061
:102F3800350E0001716F7F0E0001726F020E0001E5
:102F4800736F010E0001746F49EC2FF0AA0E000197
:102F5800716F7B0E0001726F000E0001736F030E1C
:102F68000001746F49EC2FF0000E0001D56F020EBE
:102F78003BD0EDC176F0EEC177F00101F0518FEC56
:102F880009F00009D8B44CD0ABEC34F0FF0E0001C6
:102F9800716F7B0E0001726F000E0001736F000EDF
:102FA8000001746F49EC2FF0100E0001716F7C0E58
:102FB8000001726F000E0001736F020E0001746F42
:102FC80049EC2FF0DE0E0001716F7A0E0001726F6E
:102FD800000E0001736F030E0001746F49EC2FF0AF
:102FE800000E0001EE6F030E0001FA6F19D0EEC15A
:102FF800ACF0F0C1ADF0ECC1AEF00101ED5164EC04
:1030080000F00ED00001FA51010AD8B481D7030AA2
:10301800D8B4AFD7010AD8B4EAD7070AD8A477D763
:103028000001FA5112000001686F000168510001A7
:10303800D8B41ED0000163AF1BD060C064F061C07B
:1030480065F062C066F063C067F00001641F651F29
:10305800661F671F642B000E65236623672364C001
:103068006AF065C06BF066C06CF067C06DF008D0A0
:1030780060C06AF061C06BF062C06CF063C06DF054
:10308800000160510001611100016211000163112A
:10309800D8A40AD0000E0001606F000E616F000E08
:1030A800626F000E636F1200960E0001696F08D000
:1030B8000001692B0001D8906D336C336B336A3390
:1030C800000E00016A150001646F000E00016B1507
:1030D8000001656F000E00016C150001666FFE0EA1
:1030E80000016D150001676F000164510001651151
:1030F8000001661100016711D8B410D0D9D70001BA
:10310800692B010E00016A27000E6B236C236D23C7
:103118000001D8906D336C336B336A33000E0001B5
:103128006A150001646F000E00016B150001656FE0
:10313800000E00016C150001666FFF0E00016D1591
:103148000001676F000164510001651100016611FB
:1031580000016711D8B409D0D2D70001690700016E
:10316800D8906A376B376C376D3700016CBF04D065
:10317800020E00016961F1D7000169B109D0FF0EA3
:1031880000016A17FF0E6B177F0E6C17FF0E6D1785
:103198000001D890693369C064F00001656B666B03
:1031A800676B64C067F00001666B656B646B000158
:1031B800645100016A130001655100016B1300019D
:1031C800665100016C130001675100016D13000185
:1031D80068510001D8B405D0000163AF02D00001E6
:1031E8006D8F6AC060F06BC061F06CC062F06DC03A
:1031F80063F012000001695100016A6F6B6B040EE5
:1032080000016A27000E6B23B60E00016A25D96EED
:10321800010E00016B21DA6E67C060F068C061F0D2
:10322800000E0001636F0A0E626FB2EC2FF000010E
:103238006051300FDF6E67C060F068C061F0000E4B
:103248000001636F0A0E626F2CEC2EF060C067F00D
:1032580061C068F00001695100016A6F6B6B030E71
:1032680000016A27000E6B23B60E00016A25D96E8D
:10327800010E00016B21DA6E67C060F068C061F072
:10328800000E0001636F0A0E626FB2EC2FF00001AE
:103298006051300FDF6E67C060F068C061F0000EEB
:1032A8000001636F0A0E626F2CEC2EF060C067F0AD
:1032B80061C068F00001695100016A6F6B6B020E12
:1032C80000016A27000E6B23B60E00016A25D96E2D
:1032D800010E00016B21DA6E67C060F068C061F012
:1032E800000E0001636F0A0E626FB2EC2FF000014E
:1032F8006051300FDF6E67C060F068C061F0000E8B
:103308000001636F0A0E626F2CEC2EF060C067F04C
:1033180061C068F00001695100016A6F6B6B010EB2
:1033280000016A27000E6B23B60E00016A25D96ECC
:10333800010E00016B21DA6E67C060F068C061F0B1
:10334800000E0001636F0A0E626FB2EC2FF00001ED
:103358006051300FDF6E67C060F068C061F0000E2A
:103368000001636F0A0E626F2CEC2EF060C067F0EC
:1033780061C068F000016951010DB60EF324D96EE1
:10338800010EF420DA6E67C060F068C061F0000ECC
:103398000001636F0A0E626FB2EC2FF000016051FA
:1033A800300FDF6E1200A3940001BD510001BE1161
:1033B800D8B413D0BDC0D9FFBEC0DAFF0001DFAE5C
:1033C80004D00001676B672B02D00001676B000116
:1033D80067510001686F696B05D0000E0001696FC5
:1033E800000E686F0001685100016911D8B402D05D
:1033F800A3841200030E5018D8A402D0000E506EF9
:103408005050D8A402D0A3841200020E5018D8A499
:1034180016D0010E0001606F000E0001616F000EF2
:103428000001626F000E0001636F020ECAEC25F006
:1034380060C0BDF061C0BEF0030E506E6FD0500486
:10344800D8A46CD0400E0001DA6504D0400E00010B
:103458006B6F02D0DAC06BF000016B5100080001FD
:10346800DA250001DA6F000E01014E6F050E010129
:103478004F6F6BC06AF00001D851D8B413D02AD06E
:1034880051C1D9FF52C1DAFF4EC1E1FF4FC1E2FF7E
:10349800DFCFE7FF01014E4B4F2B0101514B522B60
:1034A80000016A0700016A510001D8B418D0E8D7B2
:1034B80051C1D9FF52C1DAFF4EC1E1FF4FC1E2FF4E
:1034C800DFCFE7FF01014E4B4F2B0101514B522B30
:1034D80000016A0700016A510001D8A4E9D7000178
:1034E800DA51D8A409D0400E00016B19D8A402D033
:1034F800020E01D0030E506E010E0001606F000E27
:103508000001616F050E0001626F6BC063F0020E6F
:10351800CAEC25F060C0BDF061C0BEF0A384120003
:10352800A394000E676E000E656E000E6A6E6B0E39
:103538000001606F0F0E0001616F000E0001636FE4
:10354800000E626F000E0001656F020E646F63EC7F
:1035580033F0160E626E9F0E666E7B0E646E000E62
:103568000001686F0B0E0001686501D010D00001E2
:103578006851040D000EF324D96E040EF420DA6E9F
:10358800DE6ADE6ADE6ADD6A0001682BEBD7608CD2
:10359800000E636E6098609C09D06596000E396EC7
:1035A800000E316E000E336E000E326E65B6F5D722
:1035B800010E0001D36F010E0001D46F000E00014F
:1035C800D06F000E0001D16F000E0001CF6F000E0A
:1035D8000001686F020E0001686501D033D0000158
:1035E8006851020D3C0EF324D96E000EF420DA6EF9
:1035F800000EDE6E000EDD6E00016851020D400EF9
:10360800F324D96E010EF420DA6E000EDE6E000E81
:10361800DD6E00016851010DB70EF324D96E000E5E
:10362800F420DA6E000EDF6E00016851010DBA0E4B
:10363800F324D96E000EF420DA6E000EDF6E00015E
:10364800682BC8D7080E3C6E040E3D6E160E6A6EC7
:10365800040E0401036F300E026F080E0401016F9F
:10366800040E0401006F0401008F000E586E000E56
:103678000001D26F12000001CB4BCC2BCBC060F005
:10368800CCC061F0000E0001636F0A0E626FB2ECED
:103698002FF00001605100016111D8A4120000014F
:1036A800D783CBC060F0CCC061F0000E0001636F1F
:1036B800640E626FB2EC2FF00001605100016111DD
:1036C800D8A412000001D785CBC060F0CCC061F04F
:1036D800030E0001636FE80E626FB2EC2FF0000179
:1036E800605100016111D8A412000001D787CBC036
:1036F80060F0CCC061F00001626B636B600E00018A
:10370800646FEA0E656F000E666F000E676FCCEC93
:1037180021F00001605100016111000162110001F6
:103728006311D8A412000001C94BCA2B0001D78924
:10373800C9C060F0CAC061F0000E0001636F3C0EA2
:10374800626FB2EC2FF00001605100016111D8A442
:1037580012000001D78BC9C060F0CAC061F0020E28
:103768000001636FD00E626FB2EC2FF00001605160
:1037780000016111D8A412000001D78DC9C060F002
:10378800CAC061F0050E0001636FA00E626FB2EC53
:103798002FF00001605100016111D8A4120000014E
:1037A800D78F000E0001CC6F000ECB6F000E00010A
:1037B800CA6F000EC96F1200A394000E676E000E48
:1037C800656E000E6A6E6B0E016E0F0E026E000EB5
:1037D800046E000E036E000E066E020E056EE0EC1F
:1037E80033F0160E626E9F0E666E7B0E646E000ED0
:1037F800096E0B0E096401D00ED00950040D000E9D
:10380800F324D96E040EF420DA6EDE6ADE6ADE6A0C
:10381800DD6A092AEED7608C000E636E6098609CA2
:1038280009D06596000E396E000E316E000E336EAB
:10383800000E326E65B6F5D7010E0001D36F010E8A
:103848000001D46F000E0001D06F000E0001D16F8F
:10385800000E0001CF6F000E096E020E096401D040
:103868002ED00950020D3C0EF324D96E000EF42020
:10387800DA6E000EDE6E000EDD6E0950020D400E8F
:10388800F324D96E010EF420DA6E000EDE6E000EFF
:10389800DD6E0950010DB70EF324D96E000EF42029
:1038A800DA6E000EDF6E0950010DBA0EF324D96EE0
:1038B800000EF420DA6E000EDF6E092ACED7080E4D
:1038C8003C6E040E3D6E160E6A6E040E0401036F04
:1038D800300E026F080E0401016F040E0401006F20
:1038E8000401008F000E586E000E0001D26F120006
:1038F8000001D205D8B460BA07D0000E656E6480A6
:103908006488020E0001D26F65B464A403D0659484
:10391800C8EC33F060A202D0A494120065B064A091
:1039280007D0E0EC1BF0A384040E0001D26F659071
:1039380065B864A803D00BEC34F0659865AC18D072
:1039480064AC0ED0000E0F6E730E0E6E000E106E6D
:10395800000E116E000E136E010E126E41EC30F067
:10396800659C4F50D8A44F064F50D8B46EEC27F042
:1039780065BA64AA02D004EC32F065B264A20FD032
:103988007F0E0F6E0E68000E106E000E116E000E88
:10399800136E010E126E41EC30F0000E676E040ECD
:1039A8000001D26102D0A494120064A639D0000E9E
:1039B8001F6E030E1F6401D033D065A631D061CFCE
:1039C80059F05930E832E8320F0B526E659659B407
:1039D80007D05250010DBA0EF324D96E000E06D04E
:1039E8005250010DB70EF324D96E000EF420DA6E92
:1039F8000001DF705250D8A403D007EC27F00ED096
:103A0800000E0F6E720E0E6E590E106E000E116EB5
:103A1800000E136E000E126E41EC30F01F2AC9D74B
:103A2800A494120020EE01F04450D9264550DA2221
:103A3800DF50136E1350325C000E3358D8A032C0DA
:103A480013F01350325E000E335A000E126E11D06E
:103A58001250010D380EF324D96E040EF420DA6EDC
:103A68002EC0E1FF2FC0E2FFDFCFE7FF2E4A2F2A4B
:103A7800122A1350125CD8A0EBD732503310D8B4A6
:103A880032D020EE01F04650D9264750DA22080EEF
:103A9800DF6E20EE02F04650D9264750DA22380E63
:103AA800DE6E040EDD6E44C0D9FF45C0DAFFDFBC10
:103AB8000DD046C0D9FF47C0DAFF480EDF6E46C0BA
:103AC800D9FF47C0DAFF000EDB8E120046C0D9FFCF
:103AD80047C0DAFF080EDF6E46C0D9FF47C0DAFFDD
:103AE800000EDB8E120020EE01F04650D92647501A
:103AF800DA22080EDF6E20EE02F04650D926475033
:103B0800DA22300EDE6E040EDD6E46C0D9FF47C0E5
:103B1800DAFF040EDF6E46C0D9FF47C0DAFF000E99
:103B2800DB8E34503510D8B40ED020EE34F001D8E6
:103B38000AD00500FA6EDE50FD6EDE50FE6EF850BB
:103B4800FF6EFA501200319E4E50D8A412006EEC4F
:103B580027F012006CEC34F097EC33F094EC1AF088
:103B68007DEC33F08A8A000E0001616F320E606FBF
:103B7800D9EC32F08A9A010E0001616FF40E606F81
:103B8800D9EC32F0F28CF28E25EC2CF0000E00010C
:103B9800616F140E606FD9EC32F025EC35F0000E31
:103BA8000001616F140E606FD9EC32F0000EFDEC6D
:103BB80034F00001E96F550E0001E919D8B408D0B6
:103BC800A2EC2EF0550E0001606F000E63EC32F08F
:103BD800000E0001E86F000E6CEC35F0ABEC34F031
:103BE8001F0E0001716F7D0E0001726F000E000143
:103BF800736F000E0001746F49EC2FF0010E000185
:103C0800716F7D0E0001726F000E0001736F010E5F
:103C18000001746F49EC2FF0100E0001716F7D0EDA
:103C28000001726F000E0001736F030E0001746FC4
:103C380049EC2FF0030E0001616FE80E606FD9ECBC
:103C480032F015D0FFD7A0EC26F0010E0001E86F86
:103C5800010E71EC35F00BD0DCEC16F0040AD8A498
:103C680006D0000E0001E86F000E6CEC35F0000184
:103C7800E851000AD8B4E7D7010AD8B4EDD7E2D79B
:103C8800800E04013019D8A41200C00E396E7CD001
:103C98004E0E366E790E376E000E3B6E120E3A6E71
:103CA800120004013251D8A43ED004013251020D51
:103CB800A10EF324F66E750EF420F76E0900F5CF09
:103CC80036F00A00F5CF37F0020E3624016E000EEA
:103CD8003720026E01C0F6FF02C0F7FFF86A070E30
:103CE800F76403D00800F55005D0F6CFE9FFF7CF09
:103CF800EAFFEF503A6E030E3624016E000E3720AD
:103D0800026E01C0F6FF02C0F7FFF86A070EF764FB
:103D180003D00800F55005D0F6CFE9FFF7CFEAFF4A
:103D2800EF503B6E1200000E396E1200030E0401B4
:103D3800326124D004013251020D9B0EF324F66E39
:103D4800750EF420F76E0900F5CF36F00A00F5CFAE
:103D580037F036C0F6FF37C0F7FFF86A070EF7648A
:103D680003D00800F55005D0F6CFE9FFF7CFEAFFFA
:103D7800EF50016E01503A6E3B6A1200000E396E28
:103D88001200000E396E120004013351010AD8B432
:103D98007FD7030AD8B485D7010AD8B4C7D7F1D7D3
:103DA8000001623563350001696F00016951D8A4CB
:103DB8000AD0000E0001606F000E616F000E626F86
:103DC800000E636F120060C064F061C065F062C0ED
:103DD80066F063C067F0200E06D00001D890673304
:103DE800663365336433E82EF8D700016451000167
:103DF800686F0001628FFF0E00016017FF0E6117E8
:103E0800FF0E6217000E6317960E0001695F00012E
:103E180069AF1AD000016951800A970FD8B00AD04B
:103E2800000E0001606F000E616F000E626F000EE1
:103E3800636F12000001D8906333623361336033DB
:103E48000001693FF7D71BD01F0E0001696512D02A
:103E5800000E0001606F000E616F000E626F000EB1
:103E6800636F12000001D89060376137623763379B
:103E780000016907000169510001D8A4F3D70001C6
:103E880068510001D8B409D00001631F621F611F87
:103E9800606D000E61236223632360C060F061C01F
:103EA80061F062C062F063C063F01200000E0001AE
:103EB8006E6F81A0FED720EC34F0010E4EEC35F089
:103EC800C290F29EF29EF29C8D948A948A968A9869
:103ED8008A9A8B908B9295680F015E69000E8C6EA2
:103EE800A0920F015B81A08CF086F2888784F2860D
:103EF800000E81B2010E00016E6F000E81B0010E3E
:103F080000016E6F000E82B4010E00016E6F000199
:103F1800FB51D8A4D180F290F292F090A19C00F0CD
:103F280000F0030000F000F0D1904DEC31F0F29673
:103F3800F096F2988794A09CF28E22EC31F0F2A0D1
:103F4800F2B204D0F0B002D0A1AC12D0F290F2924A
:103F5800F090010E00016E6F000E4EEC35F097ECFC
:103F680033F08D84FB0EB36E500EB26EA08208D073
:103F78000A0E0001EF6F000E00016E6F8D94A09283
:103F88000F015B9125EC2CF0000E0001616F280EEB
:103F9800606FD9EC32F025EC2CF0000E0001616F57
:103FA800280E606FD9EC32F000016E511200609853
:103FB80039BE3BD031AE0ED0020E516E0001D15148
:103FC800D8B48DEC2BF0000E0001D46F000E000168
:103FD800D36F120020EE01F04650D9264750DA225E
:103FE800080EDF6E20EE02F04650D9264750DA223E
:103FF800300EDE6E040EDD6E46C0D9FF47C0DAFF14
:104008000C0EDF6E46C0D9FF47C0DAFF000EDB8E0C
:104018003CC0D9FF3DC0DAFF040EDF6E3CC0D9FFBB
:104028003DC0DAFF000EDB8E1200040130AF13D062
:10403800010E516E0001D051D8B48DEC2BF0000E5A
:104048000001D46F000E0001D36F4E50D8A41200A7
:104058006EEC27F01200020E516E20EE01F0465071
:10406800D9264750DA22080EDF6E20EE02F04650BD
:10407800D9264750DA22300EDE6E040EDD6E46C0B9
:10408800D9FF47C0DAFF040EDF6E46C0D9FF47C02C
:10409800DAFF000EDB8E000E0001D46F000E000167
:1040A800D36F4E50D8A412006EEC27F01200010E08
:1040B8000001786FF40E776F000E0001796FABEC9A
:1040C80034F0F50E0001716F7D0E0001726F000E65
:1040D8000001736F000E0001746F49EC2FF081B27C
:1040E80081A001D00FD07D0E0001716F7E0E0001FE
:1040F800726F000E0001736F030E0001746F49ECBC
:104108002FF047D01C0E0001716F7E0E0001726FF8
:10411800000E0001736F010E0001746F49EC2FF05F
:1041280038D081B213D0020E0001716F7E0E0001EB
:10413800726F000E0001736F020E0001746F49EC7C
:104148002FF000017951080F0001796F81B013D069
:104158000F0E0001716F7E0E0001726F000E0001DC
:10416800736F030E0001746F49EC2FF00001795151
:10417800800F0001796F880E00017919D8B41200F8
:104188009C0E0001766FD70EE82EFED7762FFCD74F
:1041980000F000017707D8A0780700017729C1E16E
:1041A80000017829D8B41200BCD70001646FFA0E58
:1041B8000001636F580EE82EFED7632FFCD700D09E
:1041C800FA0E0001636F580EE82EFED7632FFCD756
:1041D80000D0FA0E0001636F580EE82EFED7632F49
:1041E800FCD700D0000164510001D8B42CD0CE0E09
:1041F8000001616F790E0001626FB0EC33F0FA0EC6
:104208000001636F580EE82EFED7632FFCD700D04D
:10421800FA0E0001636F580EE82EFED7632FFCD705
:1042280000D0FA0E0001636F580EE82EFED7632FF8
:10423800FCD700D0E80E0001616F790E0001626FB3
:10424800B0EC33F012009A0E0001616F790E000194
:10425800626FB0EC33F0FA0E0001636F580EE82E6F
:10426800FED7632FFCD700D0FA0E0001636F580EFB
:10427800E82EFED7632FFCD700D0FA0E0001636F3B
:10428800580EE82EFED7632FFCD700D0B40E0001DD
:10429800616F790E0001626FB0EC33F0120000011B
:1042A800A66FCD0E0001786FCC0E796F4C0E7A6F29
:1042B800400E7B6F0001A6510001606F616B626B5D
:1042C800636B000E17EC18F060C074F061C075F0F5
:1042D80062C076F063C077F018EC0FF074C08DF010
:1042E80075C08EF076C08FF077C090F0000E000198
:1042F800916F000E926F800E936F440E946FBAEC1C
:1043080013F08DC0A8F08EC0A9F08FC0AAF090C09D
:10431800ABF0000E0001646F000E656F000E666F53
:10432800BF0E676FA8C060F0A9C061F0AAC062F0B4
:10433800ABC063F0C4EC0CF060C074F061C075F001
:1043480062C076F063C077F0000E0001786F000E4F
:10435800796FC80E7A6F420E7B6F18EC0FF074C03D
:10436800A8F075C0A9F076C0AAF077C0ABF0A8C0D5
:1043780060F0A9C061F0AAC062F0ABC063F0D4ECF1
:104388001EF0000160510001A76F0001A751120043
:10439800000E0001696F000163AF0CD00001631FBC
:1043A800621F611F606D000E612362236323010E8B
:1043B8000001696F000167AF09D00001671F661F20
:1043C800651F646D000E6523662367230001645131
:1043D800000165110001661100016711D8B43AD0D7
:1043E800010E0001686F08D00001D8906437653766
:1043F800663767370001682B000167AFF5D7000102
:1044080064510001605D00016551000161590001BE
:104418006651000162590001675100016359D8A033
:1044280010D0000164510001605F00016551000176
:10443800615B000166510001625B00016751000188
:10444800635B0001D89067336633653364330001DA
:10445800682FD5D7000169510001D8B409D00001EF
:10446800631F621F611F606D000E61236223632357
:1044780060C060F061C061F062C062F063C063F068
:1044880012006BEC2CF0ABEC34F0590E0001716F9C
:104498007F0E0001726F000E0001736F000E0001A5
:1044A800746F49EC2FF0720E0001716F7F0E0001DE
:1044B800726F000E0001736F010E0001746F49ECFA
:1044C8002FF06A0E0001716F7F0E0001726F000EEF
:1044D8000001736F020E0001746F49EC2FF00E0E8D
:1044E8000001626F020E0001636F430E48EC2AF070
:1044F80075EC31F063C071F064C072F03EEC2BF0E3
:1045080071C0C5F072C0C6F00001C55153EC21F06E
:104518000001AC6F0001AC510001C56FC66B0A0EFB
:104528000001766F020E0001776F0001C55136EC6D
:1045380026F000F0730E0001716F7A0E0001726FA1
:104548000A0E0001736F010E0001746F49EC2FF021
:104558006FEC30F06DC071F06EC072F00A0E0001A1
:10456800736F010E0001746F49EC2FF01200000EFA
:104578000001D96F0001BF510001C011D8B413D098
:10458800BFC0D9FFC0C0DAFF0001DFAE04D0000110
:104598006A6B6A2B02D000016A6B00016A51000144
:1045A8006B6F6C6B05D0000E00016C6F000E6B6FAB
:1045B80000016B5100016C11D8A44BD0000120EE12
:1045C80001F0BF51D926C051DA2200016951DE5CE1
:1045D800D8B00AD0000120EE01F0BF51D926C05151
:1045E800DA22DF500001696F000E0001D96F18D080
:1045F8000001D951010D400EF324D96E050EF420A7
:10460800DA6E0001D951010DF35000016725E16E02
:10461800F45000016821E26EDFCFE7FF0001D92BDB
:10462800000169510001D95DD8A0E2D7000E000150
:10463800606F400E0001616F050E0001626F400E51
:104648000001636F020ECAEC25F060C0BFF061C0C4
:10465800C0F00001D95112001F0E0001D2651200EE
:1046680060B212004C50D8A413D0800E0001676FBE
:10467800020E0001686F400E0001696FBBEC22F06A
:104688004A6E4A50D8B404D0010E4C6E000E4D6EDE
:104698004C50D8A4ACA212D04D50010D800EF3247A
:1046A800D96E020EF420DA6EDF50E2EC31F04D2ABA
:1046B8004A504D18D8A402D0000E4C6E5350D8B4AE
:1046C80024D08CEC35F00009D8B41FD03F0E4B60D5
:1046D8001CD000F0BFEC31F000016D6F4B50010DA4
:1046E800800EF324D96E020EF420DA6E6DC0DFFF5F
:1046F8004B2A4B50010D800EF324D96E020EF42084
:10470800DA6E000EDF6E000E566E5050D8A411D02F
:104718004B50D8B40ED0800E0001606F020E00011D
:10472800616F4BC062F05BEC34F07FEC35F0000E4B
:104738004B6ED7EC19F01200398E6B0E016E0F0E0E
:10474800026E000E046E000E036E000E066E020E60
:10475800056EE0EC33F0000E016E040E026E000EE2
:10476800046E000E036E000E066E300E056EE0EC51
:1047780033F0608C000E166E020E166401D016D04F
:104788001650010DB70EF324D96E000EF420DA6E20
:10479800000EDF6E1650010DBA0EF324D96E000E0E
:1047A800F420DA6E000EDF6E162AE6D7F30E016EDD
:1047B800000E026E000E046E000E036E000E066EF2
:1047C800020E056EE0EC33F0609C080E3C6E040EA1
:1047D8003D6E000E446E040E456E44C046F045C062
:1047E80047F032C458F05850D8A404D0100E000135
:1047F800D26F1200000E0F6E010E0E6E580E106E64
:10480800000E116E000E136E010E126E41EC30F0A8
:10481800200E0001D26F12003CC0D9FF3DC0DAFF64
:10482800000EDFBC010E126E040E3C1A080E0001C9
:10483800D219D8A40CD0040132517F0B636E635097
:10484800D8B402D0100E01D0040E0001D26F51046A
:10485800D8A43AD020EE02F03C50D9263D50DA22B6
:10486800380EDE6E040EDD6ED5EC27F0020E5718FA
:10487800D8A40DD03CC0D9FF3DC0DAFF040EDF6ECE
:104888003CC0D9FF3DC0DAFF000EDB8E120012508B
:10489800D8A40DD03CC0D9FF3DC0DAFF480EDF6E6A
:1048A8003CC0D9FF3DC0DAFF000EDB8E12003CC0D1
:1048B800D9FF3DC0DAFF080EDF6E3CC0D9FF3DC00E
:1048C800DAFF000EDB8E120031AE13D034503510F3
:1048D800D8B40ED020EE34F001D80AD00500FA6E14
:1048E800DE50FD6EDE50FE6EF850FF6EFA5012007C
:1048F800319E000E516E12000001696F0001665171
:104908000001676F686B020E00016727000E6823BD
:10491800B60E00016725D96E010E00016821DA6E16
:1049280069C060F00001616B000E0001636F0A0E40
:10493800626F9CEC2AF000016051300FDF6E0A0EA6
:104948000001606F0001695113EC30F00001696FDC
:10495800000166510001676F686B010E000167274F
:10496800000E6823B60E00016725D96E010E0001FE
:104978006821DA6E69C060F00001616B000E000109
:10498800636F0A0E626F9CEC2AF000016051300FD1
:10499800DF6E0A0E0001606F0001695113EC30F000
:1049A8000001696F00016651010DB60EF324D96E3E
:1049B800010EF420DA6E69C060F00001616B000E30
:1049C8000001636F0A0E626F9CEC2AF000016051CF
:1049D800300FDF6E120004013039E832030B000992
:1049E800D8A4120044D0398E080E0001D26F1200EC
:1049F80044EC1EF01200A0EC23F01200580E366EA4
:104A0800000E376E3980010E3A6E398E120048EC6E
:104A180029F012009AEC15F0120004013451010D2E
:104A2800F30EF324366E000EF420376E3980010E33
:104A38003A6E398E1200398E04013451010DF30E8D
:104A4800F324D96E000EF420DA6E32C4DFFF1200B0
:104A5800000E0F6E020E0E6E000E106E000E116E1E
:104A6800000E136E000E126E41EC30F012000401BD
:104A78003151000AD8B4CBD7010AD8B4CBD7020A2F
:104A8800D8B4C8D7060AD8B4AED7030AD8B4B0D7B2
:104A9800010AD8B4DDD70F0AD8B4B0D7010AD8B400
:104AA800AAD7030AD8B4B9D7010AD8B4C4D7070A11
:104AB80012000BD061C0F6FF62C0F7FF0800F55086
:104AC800E2EC31F00001614B622B61C0F6FF62C07D
:104AD800F7FF0800F5500009D8A4ECD7000E000134
:104AE800676F020E0001676501D011D000016751A0
:104AF800010DF35000016325D96EF45000016421C3
:104B0800DA6EDF50E2EC31F00001672BEAD70001E2
:104B180020EE03F06351D9266451DA22DF50E2EC2B
:104B280031F0040E0001686F28D000016851010DB2
:104B3800F35000016325D96EF45000016421DA6E48
:104B4800DF500001666F000166390F0BBCEC32F0D4
:104B5800E2EC31F000016851010DF35000016325CA
:104B6800D96EF45000016421DA6EDF500F0BBCECF3
:104B780032F0E2EC31F00001682B000165510001D0
:104B8800685DD8A0D2D755EC35F012000001646FEB
:104B9800000160510001D8B408D000016451020D31
:104BA8003C0EF324D96E000E07D000016451020DAB
:104BB800400EF324D96E010EF420DA6EDECF65F0D4
:104BC800DDCF66F00001655100016611D8A407D059
:104BD800000E0001606F000E0001616F12000001FD
:104BE80020EE02F06551D9266651DA2261C0DEFF57
:104BF80062C0DDFF000120EE01F06551D926665143
:104C0800DA2263C0DFFF65C0D9FF66C0DAFF400E55
:104C1800DF1665C0D9FF66C0DAFF000EDB8665C007
:104C2800D9FF66C0DAFF000EDB8E0001605100017B
:104C3800D8B408D000016451020D3C0EF324D96E9B
:104C4800000E07D000016451020D400EF324D96E06
:104C5800010EF420DA6E040EDF1A65C060F066C03B
:104C680061F0120000017F6F000E0001786F0001F3
:104C78007FAF03D0010E0001786F00017F517F0BD9
:104C880000017F6F7FC060F00001616B000E0001C2
:104C9800636F0A0E626F9CEC2AF000016051300FBE
:104CA80000017B6F0A0E0001606F00017F5113EC59
:104CB80030F000017F6F7FC060F00001616B000E73
:104CC8000001636F0A0E626F9CEC2AF000016051CC
:104CD800300F00017A6F0A0E0001606F00017F51EA
:104CE80013EC30F000017F6F7FC060F00001616B52
:104CF800000E0001636F0A0E626F9CEC2AF000013F
:104D08006051300F0001796F000178510001D8B46B
:104D180003D02D0E0001796F000E00017C6F790E13
:104D28000001716F000E0001726F76C073F077C0DA
:104D380074F049EC2FF012004AD0FFD7ABEC34F0F6
:104D4800110E0001716F7F0E0001726F010E0001DC
:104D5800736F000E0001746F49EC2FF0620E0001B2
:104D6800716F7F0E0001726F020E0001736F010EEA
:104D78000001746F49EC2FF0290E0001716F7E0E4F
:104D88000001726F000E0001736F020E0001746F54
:104D980049EC2FF0010E06D0200E0001D26101D09F
:104DA80022D0020E0001F16F1ED030EC23F0030E6A
:104DB8000001766FB2EC2DF00001766F030E000152
:104DC8007619D8B410D0020E0001F86F0CD000018B
:104DD800F151000AD8B4B2D7010AD8B4DDD7030A12
:104DE800D8B4E3D7AAD780A004D00001F851D8B42A
:104DF800EED700F0020E0001F819D8B41200000E28
:104E08000001F86F12002D0E4F6E59C01CF0FD0EF8
:104E18001C16D8A457D059C01CF0D8901C323F0E8D
:104E28001C161C50040D000EF324446E040EF420CE
:104E3800456E44C046F045C047F0040E461A44C0CB
:104E4800D9FF45C0DAFFDF30E8320F0B0D0AD8A4CE
:104E580036D0000E1E6E070E1E6401D023D020EE41
:104E680002F04450D9264550DA22DECF1CF0DDCFBF
:104E78001DF01CC0D9FF1DC0DAFF1E50010D300EF9
:104E8800F324E16E040EF420E26EDFCFE7FF20EE9C
:104E980002F04450D9264550DA22DE2A000EDD22DF
:104EA8001E2AD9D720EE02F04450D9264550DA22DE
:104EB800300EDE6E040EDD6EAFEC2CF01200E3EC6B
:104EC8002FF012005950FD0B040AD8A4120010EC60
:104ED80024F012000001D351D8A41200010E0001E1
:104EE800D36F0001D451D8A41200010E0001D46F71
:104EF800020E5118D8A415D020EE01F03C50D92646
:104F08003D50DA22000EDF6E3CC0D9FF3DC0DAFF0B
:104F1800480EDF6E3CC0D9FF3DC0DAFF000EDB8EC5
:104F280012005104D8A41200000E0001CD6F20EE2B
:104F380001F04450D9264550DA22080EDF6E20EEE3
:104F480002F04450D9264550DA22300EDE6E040EA7
:104F5800DD6E44C0D9FF45C0DAFF040EDF6E44C0E1
:104F6800D9FF45C0DAFF000EDB8E010E0001CD6FC0
:104F780020EE01F04650D9264750DA22080EDF6E9F
:104F880020EE02F04650D9264750DA22300EDE6E67
:104F9800040EDD6E46C0D9FF47C0DAFF800EDF6E13
:104FA8001200080E016E3B5010E1080E3A5CD8B0B2
:104FB8000CD03AC001F05750D8A402D0010E04D04A
:104FC8005704D8A402D0020E576E01503A5E000E64
:104FD8003B5A20EE01F03C50D9263D50DA2201C060
:104FE800DFFF380E0001C36F040E0001C46F39A043
:104FF8001CD03AD036C0F6FF37C0F7FFF86AC3C0F6
:10500800D9FFC4C0DAFF070EF76403D00800F550D3
:1050180005D0F6CFE9FFF7CFEAFFEF50DF6E364A4B
:10502800372A0001C34BC42B01060150D8B4120023
:10503800E1D736C0F6FF37C0F7FFF86AC3C0D9FF1B
:10504800C4C0DAFF070EF76403D00800F55005D096
:10505800F6CFE9FFF7CFEAFFEF50DF6E364A372A7F
:105068000001C34BC42B01060150D8B41200E1D78C
:10507800056E0150D8B407D00550020D3C0EF3243C
:10508800D96E000E06D00550020D400EF324D96EDD
:10509800010EF420DA6EDECF06F0DDCF07F0065001
:1050A8000710D8A405D0000E016E000E026E120083
:1050B80020EE02F00650D9260750DA2202C0DEFFA1
:1050C80003C0DDFF20EE01F00650D9260750DA2292
:1050D80004C0DFFF06C0D9FF07C0DAFF400EDF16A5
:1050E80006C0D9FF07C0DAFF000EDB8606C0D9FF6D
:1050F80007C0DAFF000EDB8E0150D8B407D0055088
:10510800020D3C0EF324D96E000E06D00550020D98
:10511800400EF324D96E010EF420DA6E040EDF1A65
:1051280006C001F007C002F01200000E0001606F17
:10513800020E0001606501D00ED000016051010D22
:10514800E90EF324D96E010EF420DA6E000EDF6E3C
:105158000001602BEDD7000E0001616F210E0001E8
:10516800616501D00ED000016151010D300EF324AC
:10517800D96E010EF420DA6E000EDF6E0001612B8D
:10518800EDD7000E0001626F1F0E0001626501D0AD
:105198000ED000016251010D960EF324D96E010E56
:1051A800F420DA6E000EDF6E0001622BEDD7000EE0
:1051B8000001636F0F0E0001636501D0120000014A
:1051C8006351010DB60EF324D96E010EF420DA6E88
:1051D800000EDF6E0001632BEDD7ABEC34F03E0E12
:1051E8000001716F7F0E0001726F000E0001736F76
:1051F800000E0001746F49EC2FF08B0E0001716FE7
:105208007D0E0001726F000E0001736F060E000123
:10521800746F49EC2FF0980E0001716F7D0E00013C
:10522800726F000E0001736F080E0001746F49EC75
:105238002FF0C40E0001716F7C0E0001726F000E1A
:105248000001736F010E0001746F49EC2FF0710EAD
:105258000001716F7E0E0001726F000E0001736F06
:10526800020E0001746F49EC2FF0470E0001716FB8
:105278007F0E0001726F000E0001736F030E0001B4
:10528800746F49EC2FF01200000E0401386F000E05
:105298000401396F39D0398E0001CE05D8A440D029
:1052A800040138833DD0398E3BD0398E040134BF98
:1052B8000BD0040134510F0B016E0150020D400E4A
:1052C800F324D96E010E0AD0040134510F0B016E7C
:1052D8000150020D3C0EF324D96E000EF420DA6E54
:1052E800DECF02F0DDCF03F002C0D9FF03C0DAFF42
:1052F800DFAE16D002C0D9FF03C0DAFFDFA410D09A
:10530800010E0401386F0CD0040130511F0B000A44
:10531800D8B4C1D7010AD8B4C6D7030AD8B4C5D7F8
:1053280039AE1200380E366E040E376E3980020E12
:105338003A6E1200040130511F0BE806D8A412007F
:1053480004013039E832030BE806D8A4120004013E
:105358003451D8B433D004013405D8A412002ED067
:10536800D00E366E010E376E000E3B6E080E3A6E8A
:105378003980398E1200D00E366E010E376E398E96
:10538800120036C432F037C433F0C60E2E6E010E4A
:105398002F6E920E346E610E356E318E1200D80E5D
:1053A800366E010E376E000E3B6E070E3A6EC10E5A
:1053B800396E120032C4DBF0398E1200040131510B
:1053C800000AD8B4CDD7010AD8B4D5D7210AD8B4A1
:1053D800D8D7010AD8B4E3D7030AD8A41200EAD769
:1053E8000001786F78C060F00001616B000E000169
:1053F800636F0A0E626F9CEC2AF000016051300F57
:1054080000017B6F0A0E0001606F0001785113ECF8
:1054180030F00001786F78C060F00001616B000E19
:105428000001636F0A0E626F9CEC2AF00001605164
:10543800300F00017A6F0A0E0001606F0001785189
:1054480013EC30F00001786F78C060F00001616BF8
:10545800000E0001636F0A0E626F9CEC2AF00001D7
:105468006051300F0001796F000E00017C6F790EDA
:105478000001716F000E0001726F76C073F077C083
:1054880074F049EC2FF0120000016A6F00016351BB
:10549800C5EC34F000016251080DF350040F9DEC87
:1054A80034F0000E00016B6F070E00016B6501D030
:1054B800120000016B51010D000E0001646FFF0E18
:1054C8000001656F00016A510001666F676B00019A
:1054D800D890663767370001D8906637673700017C
:1054E800D8906637673700016451000166270001CC
:1054F800655100016723F1C168F0F2C169F000014C
:105508006651000168270001675100016923F350C3
:1055180000016827F4500001692368C0F6FF69C0DC
:10552800F7FF0800F550DCEC34F000016B2BBCD71A
:10553800000E0001656F000161AF08D00001606DC9
:10554800611FD8B0612B010E0001656F000163AFC8
:1055580005D00001626D631FD8B0632B0001625152
:1055680000016311D8B426D0010E0001646F06D083
:105578000001D890623763370001642B000163AFE4
:10558800F7D7000162510001605D0001635100011D
:105598006159D8A008D0000162510001605F000184
:1055A80063510001615B0001D890633362330001ED
:1055B800642FE7D7000165510001D8B405D0000178
:1055C800606D611FD8B0612B60C060F061C061F090
:1055D80012003FD060C0D9FF61C0DAFFDF50D8B4F5
:1055E80011D060C0D9FF61C0DAFFDF500001666FDB
:1055F80062C0F6FF63C0F7FF0800F55000016619A6
:10560800D8B421D062C0F6FF63C0F7FF0800F55098
:105618000001666F676B0001661F671F664B672B8B
:1056280060C0D9FF61C0DAFFDF500001686F000178
:105638006851000166250001606F000E00016721B6
:105648000001616F12000001604B612B0001624B89
:10565800632B00016407D8A0650700016429BAE13B
:1056680000016529D8A4B6D7000E0001616F000EAD
:10567800606F1200000E0001786F000E776F000E49
:105688000001766F030E0001766501D03DD071C030
:10569800D9FF72C0DAFFDF50D8B436D00001765196
:1056A8000001D8B40FD077C060F078C061F0000E68
:1056B8000001636F0A0E626F12EC33F060C077F07E
:1056C80061C078F071C0D9FF72C0DAFFDF50000105
:1056D800736F00017351000177250001746F000E8C
:1056E800000178210001756FD00E000174250001BA
:1056F800776FFF0E000175210001786F0001714B73
:10570800722B0001762BBED777C071F078C072F08B
:105718001200000E0001D06F000E0001D16F020EC2
:105728005118D8A41FD020EE01F04650D926475072
:10573800DA22080EDF6E20EE02F04650D9264750D6
:10574800DA22380EDE6E040EDD6E46C0D9FF47C081
:10575800DAFF480EDF6E46C0D9FF47C0DAFF000EF9
:10576800DB8E12003A500401365D3B500401375974
:10577800D8B004D036C43AF037C43BF0D5EC27F0A3
:1057880020EE02F03C50D9263D50DA22380EDE6E6B
:10579800040EDD6E3CC0D9FF3DC0DAFF480EDF6E57
:1057A8003CC0D9FF3DC0DAFF000EDB8E1200066E4A
:1057B800000E076E040E086E0150026E036AD89040
:1057C800023603360650046E056AD890043605364C
:1057D800D890043605360250042603500522D89086
:1057E80004360536D8900436053604500726055089
:1057F800082207C0D9FF08C0DAFFDF9E0150D8A4ED
:1058080007D00650020D400EF324D96E010E06D0C3
:105818000650020D3C0EF324D96E000EF420DA6E09
:1058280007C0DEFF08C0DDFF07C0D9FF08C0DAFFE8
:10583800DF9C20EE04F00750D9260850DA22DF8CCE
:105848001200000E0001676F000E0001666F000E67
:10585800656FAC9A8B9C000E0001616F0A0E606F39
:10586800D9EC32F0AC8A000E0001616F050E606F52
:10587800D9EC32F0550EAD6EACA2FED7FD0E00018C
:10588800616F7F0E0001626FB0EC33F0000E000113
:10589800616F280E606FD9EC32F013D068EC2EF0EF
:1058A8000009D8A40BD00001654B662B890E0001B6
:1058B800655D130E00016659D8A003D0010E0001E2
:1058C800676F000167510001D8B41200E7D7000ED6
:1058D8000001666F000E656F7F0E0001616F790E23
:1058E8000001626FB0EC33F00BD00001654B662B02
:1058F800510E0001655DC30E00016659D8B005D090
:1059080068EC2EF00009D8B4F0D7000E0001666FDD
:10591800000E656F640E0001616F790E0001626F01
:10592800B0EC33F00BD00001654B662B510E000133
:10593800655DC30E00016659D8B005D068EC2EF03D
:105948000009D8B4F0D7000E0001616F640E606FD3
:10595800D9EC32F01200000E576E000E4E6E000E9B
:105968000001D06F000E0001D16F000E0001CD6F55
:10597800000E516E3CC0D9FF3DC0DAFF7F0EDF1626
:10598800040E3C1A3CC0D9FF3DC0DAFF7F0EDF167B
:10599800040E3C1A46C0D9FF47C0DAFF7F0EDF1657
:1059A800000E396E000E3B6E000E3A6E000E316E20
:1059B800000E336E000E326EEFEC24F0000E0F6E08
:1059C800030E0E6E000E106E000E116E000E136E9A
:1059D800000E126E41EC30F0DBEC1FF01200000EEE
:1059E800096E000E0A6E000E0B6E000E0C6E05504E
:1059F800061007100810D8B42AD0010E0D6E06D074
:105A0800D89005360636073608360D2A08AEF8D778
:105A1800D89009360A360B360C360550015C06500C
:105A280002580750035808500458D8A009D0055008
:105A3800015E0650025A0750035A0850045A09805A
:105A4800D89008320732063205320D2EE1D709C048
:105A580001F00AC002F00BC003F00CC004F0120001
:105A6800E20EE7EC34F08A84040E0001626F1C0E2B
:105A7800E82EFED7622FFCD700D08A94200E0001B2
:105A8800626F2A0EE82EFED7622FFCD78A84100E8A
:105A98000001626F940EE82EFED7622FFCD700D06B
:105AA800A10EE7EC34F0C00EE7EC34F0A30EE7ECFF
:105AB80034F0070E3FEC35F0050E37EC35F00001F9
:105AC800F55108EC35F0000E1CEC35F0F80EE7EC5B
:105AD80034F0000EE7EC34F0AF0EE7EC34F01200CF
